{
  "contractName": "DaosFactory",
  "abi": [
    {
      "anonymous": false,
      "inputs": [
        {
          "indexed": false,
          "internalType": "address",
          "name": "user",
          "type": "address"
        },
        {
          "indexed": false,
          "internalType": "string",
          "name": "name",
          "type": "string"
        },
        {
          "indexed": false,
          "internalType": "address",
          "name": "daoAddress",
          "type": "address"
        }
      ],
      "name": "DaoCreated",
      "type": "event"
    },
    {
      "anonymous": false,
      "inputs": [
        {
          "indexed": false,
          "internalType": "address",
          "name": "user",
          "type": "address"
        },
        {
          "indexed": false,
          "internalType": "string",
          "name": "name",
          "type": "string"
        },
        {
          "indexed": false,
          "internalType": "address",
          "name": "daoAddress",
          "type": "address"
        }
      ],
      "name": "ModuleActivated",
      "type": "event"
    },
    {
      "anonymous": false,
      "inputs": [
        {
          "indexed": true,
          "internalType": "address",
          "name": "previousOwner",
          "type": "address"
        },
        {
          "indexed": true,
          "internalType": "address",
          "name": "newOwner",
          "type": "address"
        }
      ],
      "name": "OwnershipTransferred",
      "type": "event"
    },
    {
      "inputs": [
        {
          "internalType": "address",
          "name": "",
          "type": "address"
        },
        {
          "internalType": "address",
          "name": "",
          "type": "address"
        }
      ],
      "name": "daoOwners",
      "outputs": [
        {
          "internalType": "bool",
          "name": "",
          "type": "bool"
        }
      ],
      "stateMutability": "view",
      "type": "function"
    },
    {
      "inputs": [
        {
          "internalType": "uint256",
          "name": "",
          "type": "uint256"
        }
      ],
      "name": "daos",
      "outputs": [
        {
          "internalType": "address",
          "name": "owner",
          "type": "address"
        },
        {
          "internalType": "address",
          "name": "daoAddress",
          "type": "address"
        }
      ],
      "stateMutability": "view",
      "type": "function"
    },
    {
      "inputs": [
        {
          "internalType": "bytes8",
          "name": "",
          "type": "bytes8"
        },
        {
          "internalType": "bytes8",
          "name": "",
          "type": "bytes8"
        }
      ],
      "name": "modulesDaos",
      "outputs": [
        {
          "internalType": "uint256",
          "name": "id",
          "type": "uint256"
        },
        {
          "internalType": "address",
          "name": "moduleAddress",
          "type": "address"
        },
        {
          "internalType": "bool",
          "name": "isActive",
          "type": "bool"
        },
        {
          "internalType": "bool",
          "name": "isExclusive",
          "type": "bool"
        },
        {
          "internalType": "bytes8",
          "name": "moduleType",
          "type": "bytes8"
        },
        {
          "internalType": "bytes8",
          "name": "moduleCode",
          "type": "bytes8"
        },
        {
          "internalType": "string",
          "name": "moduleInfo",
          "type": "string"
        }
      ],
      "stateMutability": "view",
      "type": "function"
    },
    {
      "inputs": [],
      "name": "owner",
      "outputs": [
        {
          "internalType": "address",
          "name": "",
          "type": "address"
        }
      ],
      "stateMutability": "view",
      "type": "function"
    },
    {
      "inputs": [],
      "name": "renounceOwnership",
      "outputs": [],
      "stateMutability": "nonpayable",
      "type": "function"
    },
    {
      "inputs": [
        {
          "internalType": "address",
          "name": "newOwner",
          "type": "address"
        }
      ],
      "name": "transferOwnership",
      "outputs": [],
      "stateMutability": "nonpayable",
      "type": "function"
    },
    {
      "inputs": [],
      "name": "getdeployedDaos",
      "outputs": [
        {
          "components": [
            {
              "internalType": "address",
              "name": "owner",
              "type": "address"
            },
            {
              "internalType": "address",
              "name": "daoAddress",
              "type": "address"
            }
          ],
          "internalType": "struct DaosFactory.deployedDao[]",
          "name": "",
          "type": "tuple[]"
        }
      ],
      "stateMutability": "view",
      "type": "function"
    },
    {
      "inputs": [
        {
          "internalType": "address",
          "name": "_daoAddress",
          "type": "address"
        },
        {
          "internalType": "bytes8",
          "name": "_type",
          "type": "bytes8"
        },
        {
          "internalType": "bytes8",
          "name": "_code",
          "type": "bytes8"
        }
      ],
      "name": "activateModuleForDao",
      "outputs": [
        {
          "internalType": "address",
          "name": "",
          "type": "address"
        }
      ],
      "stateMutability": "nonpayable",
      "type": "function"
    },
    {
      "inputs": [
        {
          "internalType": "address",
          "name": "_moduleAddress",
          "type": "address"
        },
        {
          "internalType": "bytes8",
          "name": "_type",
          "type": "bytes8"
        },
        {
          "internalType": "bytes8",
          "name": "_code",
          "type": "bytes8"
        },
        {
          "internalType": "bool",
          "name": "_isExclusive",
          "type": "bool"
        }
      ],
      "name": "addModule",
      "outputs": [],
      "stateMutability": "nonpayable",
      "type": "function"
    },
    {
      "inputs": [
        {
          "internalType": "string",
          "name": "_name",
          "type": "string"
        },
        {
          "internalType": "string",
          "name": "_description",
          "type": "string"
        },
        {
          "internalType": "enum Data.visibilityEnum",
          "name": "_visibility",
          "type": "uint8"
        },
        {
          "internalType": "string",
          "name": "_rules",
          "type": "string"
        },
        {
          "components": [
            {
              "internalType": "bytes8",
              "name": "moduleType",
              "type": "bytes8"
            },
            {
              "internalType": "bytes8",
              "name": "moduleCode",
              "type": "bytes8"
            }
          ],
          "internalType": "struct Data.ModuleToActivate[]",
          "name": "_modules",
          "type": "tuple[]"
        }
      ],
      "name": "createDAO",
      "outputs": [],
      "stateMutability": "nonpayable",
      "type": "function"
    },
    {
      "inputs": [
        {
          "internalType": "string",
          "name": "_name",
          "type": "string"
        }
      ],
      "name": "hash",
      "outputs": [
        {
          "internalType": "bytes8",
          "name": "",
          "type": "bytes8"
        }
      ],
      "stateMutability": "pure",
      "type": "function"
    }
  ],
  "bytecode": "0x60806040523480156200001157600080fd5b50620000446200002f6200004a640100000000026401000000009004565b62000052640100000000026401000000009004565b62000116565b600033905090565b60008060009054906101000a900473ffffffffffffffffffffffffffffffffffffffff169050816000806101000a81548173ffffffffffffffffffffffffffffffffffffffff021916908373ffffffffffffffffffffffffffffffffffffffff1602179055508173ffffffffffffffffffffffffffffffffffffffff168173ffffffffffffffffffffffffffffffffffffffff167f8be0079c531659141344cd1fd0a4f28419497f9722a3daafe3b4186f6b6457e060405160405180910390a35050565b61533180620001266000396000f3fe60806040523480156200001157600080fd5b5060043610620000d5576000357c0100000000000000000000000000000000000000000000000000000000900480638f181a0b11620000985780638f181a0b14620001945780639c82849814620001d05780639e99261214620001f0578063b411ee941462000212578063ccbbd2601462000248578063f2fde38b146200027f57620000d5565b80631118b1b614620000da578063270119341462000110578063347791271462000130578063715018a614620001665780638da5cb5b1462000172575b600080fd5b620000f86004803603810190620000f29190620019f2565b6200029f565b60405162000107919062001a56565b60405180910390f35b6200012e600480360381019062000128919062001df7565b620002ce565b005b6200014e600480360381019062000148919062001f04565b62000873565b6040516200015d919062001f71565b60405180910390f35b6200017062000a43565b005b6200017c62000ad4565b6040516200018b919062001f71565b60405180910390f35b620001b26004803603810190620001ac919062001f8e565b62000afd565b604051620001c7979695949392919062002094565b60405180910390f35b620001ee6004803603810190620001e8919062002149565b62000c60565b005b620001fa62000f97565b604051620002099190620022bc565b60405180910390f35b6200023060048036038101906200022a9190620022e0565b620010a4565b6040516200023f919062002331565b60405180910390f35b6200026660048036038101906200026091906200237f565b620010d6565b60405162000276929190620023b1565b60405180910390f35b6200029d6004803603810190620002979190620023de565b6200114b565b005b60036020528160005260406000206020528060005260406000206000915091509054906101000a900460ff1681565b600a81511062000315576040517f08c379a00000000000000000000000000000000000000000000000000000000081526004016200030c9062002460565b60405180910390fd5b60008787905014156200035f576040517f08c379a00000000000000000000000000000000000000000000000000000000081526004016200035690620024d2565b60405180910390fd5b62000369620017e8565b60008888888888886040516200037f906200182e565b6200039096959493929190620025a7565b604051809103906000f080158015620003ad573d6000803e3d6000fd5b5090508073ffffffffffffffffffffffffffffffffffffffff166367561d93306040518263ffffffff167c010000000000000000000000000000000000000000000000000000000002815260040162000407919062001f71565b600060405180830381600087803b1580156200042257600080fd5b505af115801562000437573d6000803e3d6000fd5b505050508073ffffffffffffffffffffffffffffffffffffffff1663f2fde38b336040518263ffffffff167c010000000000000000000000000000000000000000000000000000000002815260040162000492919062001f71565b600060405180830381600087803b158015620004ad57600080fd5b505af1158015620004c2573d6000803e3d6000fd5b5050505033826000019073ffffffffffffffffffffffffffffffffffffffff16908173ffffffffffffffffffffffffffffffffffffffff168152505080826020019073ffffffffffffffffffffffffffffffffffffffff16908173ffffffffffffffffffffffffffffffffffffffff1681525050600282908060018154018082558091505060019003906000526020600020906002020160009091909190915060008201518160000160006101000a81548173ffffffffffffffffffffffffffffffffffffffff021916908373ffffffffffffffffffffffffffffffffffffffff16021790555060208201518160010160006101000a81548173ffffffffffffffffffffffffffffffffffffffff021916908373ffffffffffffffffffffffffffffffffffffffff160217905550505060005b83518110156200078f5760011515600460008684815181106200061d576200061c6200260d565b5b60200260200101516000015177ffffffffffffffffffffffffffffffffffffffffffffffff191677ffffffffffffffffffffffffffffffffffffffffffffffff1916815260200190815260200160002060008684815181106200068557620006846200260d565b5b60200260200101516020015177ffffffffffffffffffffffffffffffffffffffffffffffff191677ffffffffffffffffffffffffffffffffffffffffffffffff1916815260200190815260200160002060010160149054906101000a900460ff161515146200072b576040517f08c379a000000000000000000000000000000000000000000000000000000000815260040162000722906200268c565b60405180910390fd5b6200077a828583815181106200074657620007456200260d565b5b6020026020010151600001518684815181106200076857620007676200260d565b5b6020026020010151602001516200124f565b50806200078790620026dd565b9050620005f5565b506001600360008373ffffffffffffffffffffffffffffffffffffffff1673ffffffffffffffffffffffffffffffffffffffff16815260200190815260200160002060003373ffffffffffffffffffffffffffffffffffffffff1673ffffffffffffffffffffffffffffffffffffffff16815260200190815260200160002060006101000a81548160ff0219169083151502179055507fb1eee3b28a9945db09f7a21d65593e3edb51ab7b10bb1f8e713a9a6afb7e347b338a8a85602001516040516200086094939291906200272b565b60405180910390a1505050505050505050565b600083600360008273ffffffffffffffffffffffffffffffffffffffff1673ffffffffffffffffffffffffffffffffffffffff16815260200190815260200160002060003373ffffffffffffffffffffffffffffffffffffffff1673ffffffffffffffffffffffffffffffffffffffff16815260200190815260200160002060009054906101000a900460ff1662000942576040517f08c379a00000000000000000000000000000000000000000000000000000000081526004016200093990620027c1565b60405180910390fd5b60011515600460008677ffffffffffffffffffffffffffffffffffffffffffffffff191677ffffffffffffffffffffffffffffffffffffffffffffffff1916815260200190815260200160002060008577ffffffffffffffffffffffffffffffffffffffffffffffff191677ffffffffffffffffffffffffffffffffffffffffffffffff1916815260200190815260200160002060010160149054906101000a900460ff1615151462000a2c576040517f08c379a000000000000000000000000000000000000000000000000000000000815260040162000a23906200268c565b60405180910390fd5b62000a398585856200124f565b9150509392505050565b62000a4d6200171c565b73ffffffffffffffffffffffffffffffffffffffff1662000a6d62000ad4565b73ffffffffffffffffffffffffffffffffffffffff161462000ac6576040517f08c379a000000000000000000000000000000000000000000000000000000000815260040162000abd9062002833565b60405180910390fd5b62000ad2600062001724565b565b60008060009054906101000a900473ffffffffffffffffffffffffffffffffffffffff16905090565b6004602052816000526040600020602052806000526040600020600091509150508060000154908060010160009054906101000a900473ffffffffffffffffffffffffffffffffffffffff16908060010160149054906101000a900460ff16908060010160159054906101000a900460ff16908060010160169054906101000a9004780100000000000000000000000000000000000000000000000002908060020160009054906101000a90047801000000000000000000000000000000000000000000000000029080600301805462000bd79062002884565b80601f016020809104026020016040519081016040528092919081815260200182805462000c059062002884565b801562000c565780601f1062000c2a5761010080835404028352916020019162000c56565b820191906000526020600020905b81548152906001019060200180831162000c3857829003601f168201915b5050505050905087565b62000c6a6200171c565b73ffffffffffffffffffffffffffffffffffffffff1662000c8a62000ad4565b73ffffffffffffffffffffffffffffffffffffffff161462000ce3576040517f08c379a000000000000000000000000000000000000000000000000000000000815260040162000cda9062002833565b60405180910390fd5b62000ced6200183c565b60018160400190151590811515815250508181606001901515908115158152505083816080019077ffffffffffffffffffffffffffffffffffffffffffffffff1916908177ffffffffffffffffffffffffffffffffffffffffffffffff191681525050828160a0019077ffffffffffffffffffffffffffffffffffffffffffffffff1916908177ffffffffffffffffffffffffffffffffffffffffffffffff19168152505084816020019073ffffffffffffffffffffffffffffffffffffffff16908173ffffffffffffffffffffffffffffffffffffffff168152505080600460008677ffffffffffffffffffffffffffffffffffffffffffffffff191677ffffffffffffffffffffffffffffffffffffffffffffffff1916815260200190815260200160002060008577ffffffffffffffffffffffffffffffffffffffffffffffff191677ffffffffffffffffffffffffffffffffffffffffffffffff191681526020019081526020016000206000820151816000015560208201518160010160006101000a81548173ffffffffffffffffffffffffffffffffffffffff021916908373ffffffffffffffffffffffffffffffffffffffff16021790555060408201518160010160146101000a81548160ff02191690831515021790555060608201518160010160156101000a81548160ff02191690831515021790555060808201518160010160166101000a81548167ffffffffffffffff021916908378010000000000000000000000000000000000000000000000009004021790555060a08201518160020160006101000a81548167ffffffffffffffff021916908378010000000000000000000000000000000000000000000000009004021790555060c082015181600301908051906020019062000f8c929190620018c9565b509050505050505050565b60606002805480602002602001604051908101604052809291908181526020016000905b828210156200109b57838290600052602060002090600202016040518060400160405290816000820160009054906101000a900473ffffffffffffffffffffffffffffffffffffffff1673ffffffffffffffffffffffffffffffffffffffff1673ffffffffffffffffffffffffffffffffffffffff1681526020016001820160009054906101000a900473ffffffffffffffffffffffffffffffffffffffff1673ffffffffffffffffffffffffffffffffffffffff1673ffffffffffffffffffffffffffffffffffffffff16815250508152602001906001019062000fbb565b50505050905090565b600081604051602001620010b99190620028ba565b604051602081830303815290604052805190602001209050919050565b60028181548110620010e757600080fd5b90600052602060002090600202016000915090508060000160009054906101000a900473ffffffffffffffffffffffffffffffffffffffff16908060010160009054906101000a900473ffffffffffffffffffffffffffffffffffffffff16905082565b620011556200171c565b73ffffffffffffffffffffffffffffffffffffffff166200117562000ad4565b73ffffffffffffffffffffffffffffffffffffffff1614620011ce576040517f08c379a0000000000000000000000000000000000000000000000000000000008152600401620011c59062002833565b60405180910390fd5b600073ffffffffffffffffffffffffffffffffffffffff168173ffffffffffffffffffffffffffffffffffffffff16141562001241576040517f08c379a0000000000000000000000000000000000000000000000000000000008152600401620012389062002954565b60405180910390fd5b6200124c8162001724565b50565b600060011515600460008577ffffffffffffffffffffffffffffffffffffffffffffffff191677ffffffffffffffffffffffffffffffffffffffffffffffff1916815260200190815260200160002060008477ffffffffffffffffffffffffffffffffffffffffffffffff191677ffffffffffffffffffffffffffffffffffffffffffffffff1916815260200190815260200160002060010160149054906101000a900460ff161515146200133b576040517f08c379a000000000000000000000000000000000000000000000000000000000815260040162001332906200268c565b60405180910390fd5b600460008477ffffffffffffffffffffffffffffffffffffffffffffffff191677ffffffffffffffffffffffffffffffffffffffffffffffff1916815260200190815260200160002060008377ffffffffffffffffffffffffffffffffffffffffffffffff191677ffffffffffffffffffffffffffffffffffffffffffffffff1916815260200190815260200160002060010160009054906101000a900473ffffffffffffffffffffffffffffffffffffffff1673ffffffffffffffffffffffffffffffffffffffff166312ee7e4185336040518363ffffffff167c010000000000000000000000000000000000000000000000000000000002815260040162001447929190620023b1565b600060405180830381600087803b1580156200146257600080fd5b505af115801562001477573d6000803e3d6000fd5b505050508373ffffffffffffffffffffffffffffffffffffffff16634ec5ff0a8484600460008877ffffffffffffffffffffffffffffffffffffffffffffffff191677ffffffffffffffffffffffffffffffffffffffffffffffff1916815260200190815260200160002060008777ffffffffffffffffffffffffffffffffffffffffffffffff191677ffffffffffffffffffffffffffffffffffffffffffffffff1916815260200190815260200160002060010160009054906101000a900473ffffffffffffffffffffffffffffffffffffffff16600460008977ffffffffffffffffffffffffffffffffffffffffffffffff191677ffffffffffffffffffffffffffffffffffffffffffffffff1916815260200190815260200160002060008877ffffffffffffffffffffffffffffffffffffffffffffffff191677ffffffffffffffffffffffffffffffffffffffffffffffff1916815260200190815260200160002060010160159054906101000a900460ff166040518563ffffffff167c01000000000000000000000000000000000000000000000000000000000281526004016200162b949392919062002976565b600060405180830381600087803b1580156200164657600080fd5b505af11580156200165b573d6000803e3d6000fd5b50505050600460008477ffffffffffffffffffffffffffffffffffffffffffffffff191677ffffffffffffffffffffffffffffffffffffffffffffffff1916815260200190815260200160002060008377ffffffffffffffffffffffffffffffffffffffffffffffff191677ffffffffffffffffffffffffffffffffffffffffffffffff1916815260200190815260200160002060010160009054906101000a900473ffffffffffffffffffffffffffffffffffffffff1690509392505050565b600033905090565b60008060009054906101000a900473ffffffffffffffffffffffffffffffffffffffff169050816000806101000a81548173ffffffffffffffffffffffffffffffffffffffff021916908373ffffffffffffffffffffffffffffffffffffffff1602179055508173ffffffffffffffffffffffffffffffffffffffff168173ffffffffffffffffffffffffffffffffffffffff167f8be0079c531659141344cd1fd0a4f28419497f9722a3daafe3b4186f6b6457e060405160405180910390a35050565b6040518060400160405280600073ffffffffffffffffffffffffffffffffffffffff168152602001600073ffffffffffffffffffffffffffffffffffffffff1681525090565b61293880620029c483390190565b6040518060e0016040528060008152602001600073ffffffffffffffffffffffffffffffffffffffff168152602001600015158152602001600015158152602001600077ffffffffffffffffffffffffffffffffffffffffffffffff19168152602001600077ffffffffffffffffffffffffffffffffffffffffffffffff19168152602001606081525090565b828054620018d79062002884565b90600052602060002090601f016020900481019282620018fb576000855562001947565b82601f106200191657805160ff191683800117855562001947565b8280016001018555821562001947579182015b828111156200194657825182559160200191906001019062001929565b5b5090506200195691906200195a565b5090565b5b80821115620019755760008160009055506001016200195b565b5090565b6000604051905090565b600080fd5b600080fd5b600073ffffffffffffffffffffffffffffffffffffffff82169050919050565b6000620019ba826200198d565b9050919050565b620019cc81620019ad565b8114620019d857600080fd5b50565b600081359050620019ec81620019c1565b92915050565b6000806040838503121562001a0c5762001a0b62001983565b5b600062001a1c85828601620019db565b925050602062001a2f85828601620019db565b9150509250929050565b60008115159050919050565b62001a508162001a39565b82525050565b600060208201905062001a6d600083018462001a45565b92915050565b600080fd5b600080fd5b600080fd5b60008083601f84011262001a9b5762001a9a62001a73565b5b8235905067ffffffffffffffff81111562001abb5762001aba62001a78565b5b60208301915083600182028301111562001ada5762001ad962001a7d565b5b9250929050565b6002811062001aef57600080fd5b50565b60008135905062001b038162001ae1565b92915050565b600080fd5b6000601f19601f8301169050919050565b7f4e487b7100000000000000000000000000000000000000000000000000000000600052604160045260246000fd5b62001b598262001b0e565b810181811067ffffffffffffffff8211171562001b7b5762001b7a62001b1f565b5b80604052505050565b600062001b9062001979565b905062001b9e828262001b4e565b919050565b600067ffffffffffffffff82111562001bc15762001bc062001b1f565b5b62001bcc8262001b0e565b9050602081019050919050565b82818337600083830152505050565b600062001bff62001bf98462001ba3565b62001b84565b90508281526020810184848401111562001c1e5762001c1d62001b09565b5b62001c2b84828562001bd9565b509392505050565b600082601f83011262001c4b5762001c4a62001a73565b5b813562001c5d84826020860162001be8565b91505092915050565b600067ffffffffffffffff82111562001c845762001c8362001b1f565b5b602082029050602081019050919050565b600080fd5b60007fffffffffffffffff00000000000000000000000000000000000000000000000082169050919050565b62001cd18162001c9a565b811462001cdd57600080fd5b50565b60008135905062001cf18162001cc6565b92915050565b60006040828403121562001d105762001d0f62001c95565b5b62001d1c604062001b84565b9050600062001d2e8482850162001ce0565b600083015250602062001d448482850162001ce0565b60208301525092915050565b600062001d6762001d618462001c66565b62001b84565b9050808382526020820190506040840283018581111562001d8d5762001d8c62001a7d565b5b835b8181101562001dba578062001da5888262001cf7565b84526020840193505060408101905062001d8f565b5050509392505050565b600082601f83011262001ddc5762001ddb62001a73565b5b813562001dee84826020860162001d50565b91505092915050565b600080600080600080600060a0888a03121562001e195762001e1862001983565b5b600088013567ffffffffffffffff81111562001e3a5762001e3962001988565b5b62001e488a828b0162001a82565b9750975050602088013567ffffffffffffffff81111562001e6e5762001e6d62001988565b5b62001e7c8a828b0162001a82565b9550955050604062001e918a828b0162001af2565b935050606088013567ffffffffffffffff81111562001eb55762001eb462001988565b5b62001ec38a828b0162001c33565b925050608088013567ffffffffffffffff81111562001ee75762001ee662001988565b5b62001ef58a828b0162001dc4565b91505092959891949750929550565b60008060006060848603121562001f205762001f1f62001983565b5b600062001f3086828701620019db565b935050602062001f438682870162001ce0565b925050604062001f568682870162001ce0565b9150509250925092565b62001f6b81620019ad565b82525050565b600060208201905062001f88600083018462001f60565b92915050565b6000806040838503121562001fa85762001fa762001983565b5b600062001fb88582860162001ce0565b925050602062001fcb8582860162001ce0565b9150509250929050565b6000819050919050565b62001fea8162001fd5565b82525050565b62001ffb8162001c9a565b82525050565b600081519050919050565b600082825260208201905092915050565b60005b838110156200203d57808201518184015260208101905062002020565b838111156200204d576000848401525b50505050565b6000620020608262002001565b6200206c81856200200c565b93506200207e8185602086016200201d565b620020898162001b0e565b840191505092915050565b600060e082019050620020ab600083018a62001fdf565b620020ba602083018962001f60565b620020c9604083018862001a45565b620020d8606083018762001a45565b620020e7608083018662001ff0565b620020f660a083018562001ff0565b81810360c08301526200210a818462002053565b905098975050505050505050565b620021238162001a39565b81146200212f57600080fd5b50565b600081359050620021438162002118565b92915050565b6000806000806080858703121562002166576200216562001983565b5b60006200217687828801620019db565b9450506020620021898782880162001ce0565b93505060406200219c8782880162001ce0565b9250506060620021af8782880162002132565b91505092959194509250565b600081519050919050565b600082825260208201905092915050565b6000819050602082019050919050565b620021f281620019ad565b82525050565b604082016000820151620022106000850182620021e7565b506020820151620022256020850182620021e7565b50505050565b6000620022398383620021f8565b60408301905092915050565b6000602082019050919050565b60006200225f82620021bb565b6200226b8185620021c6565b93506200227883620021d7565b8060005b83811015620022af5781516200229388826200222b565b9750620022a08362002245565b9250506001810190506200227c565b5085935050505092915050565b60006020820190508181036000830152620022d8818462002252565b905092915050565b600060208284031215620022f957620022f862001983565b5b600082013567ffffffffffffffff8111156200231a576200231962001988565b5b620023288482850162001c33565b91505092915050565b600060208201905062002348600083018462001ff0565b92915050565b620023598162001fd5565b81146200236557600080fd5b50565b60008135905062002379816200234e565b92915050565b60006020828403121562002398576200239762001983565b5b6000620023a88482850162002368565b91505092915050565b6000604082019050620023c8600083018562001f60565b620023d7602083018462001f60565b9392505050565b600060208284031215620023f757620023f662001983565b5b60006200240784828501620019db565b91505092915050565b7f4d6f64756c6573206d757374206265206c657373207468616e2031302e000000600082015250565b600062002448601d836200200c565b9150620024558262002410565b602082019050919050565b600060208201905081810360008301526200247b8162002439565b9050919050565b7f4e616d652063616e206e6f7420626520656d7074790000000000000000000000600082015250565b6000620024ba6015836200200c565b9150620024c78262002482565b602082019050919050565b60006020820190508181036000830152620024ed81620024ab565b9050919050565b60006200250283856200200c565b93506200251183858462001bd9565b6200251c8362001b0e565b840190509392505050565b7f4e487b7100000000000000000000000000000000000000000000000000000000600052602160045260246000fd5b600281106200256a576200256962002527565b5b50565b60008190506200257d8262002556565b919050565b60006200258f826200256d565b9050919050565b620025a18162002582565b82525050565b60006080820190508181036000830152620025c481888a620024f4565b90508181036020830152620025db818688620024f4565b9050620025ec604083018562002596565b818103606083015262002600818462002053565b9050979650505050505050565b7f4e487b7100000000000000000000000000000000000000000000000000000000600052603260045260246000fd5b7f4d6f64756c65206e6f7420666f756e6400000000000000000000000000000000600082015250565b6000620026746010836200200c565b915062002681826200263c565b602082019050919050565b60006020820190508181036000830152620026a78162002665565b9050919050565b7f4e487b7100000000000000000000000000000000000000000000000000000000600052601160045260246000fd5b6000620026ea8262001fd5565b91507fffffffffffffffffffffffffffffffffffffffffffffffffffffffffffffffff82141562002720576200271f620026ae565b5b600182019050919050565b600060608201905062002742600083018762001f60565b818103602083015262002757818587620024f4565b905062002768604083018462001f60565b95945050505050565b7f496e76616c696420557365723a2044616f73466163746f727900000000000000600082015250565b6000620027a96019836200200c565b9150620027b68262002771565b602082019050919050565b60006020820190508181036000830152620027dc816200279a565b9050919050565b7f4f776e61626c653a2063616c6c6572206973206e6f7420746865206f776e6572600082015250565b60006200281b6020836200200c565b91506200282882620027e3565b602082019050919050565b600060208201905081810360008301526200284e816200280c565b9050919050565b7f4e487b7100000000000000000000000000000000000000000000000000000000600052602260045260246000fd5b600060028204905060018216806200289d57607f821691505b60208210811415620028b457620028b362002855565b5b50919050565b60006020820190508181036000830152620028d6818462002053565b905092915050565b7f4f776e61626c653a206e6577206f776e657220697320746865207a65726f206160008201527f6464726573730000000000000000000000000000000000000000000000000000602082015250565b60006200293c6026836200200c565b91506200294982620028de565b604082019050919050565b600060208201905081810360008301526200296f816200292d565b9050919050565b60006080820190506200298d600083018762001ff0565b6200299c602083018662001ff0565b620029ab604083018562001f60565b620029ba606083018462001a45565b9594505050505056fe60806040523480156200001157600080fd5b50604051620029383803806200293883398181016040528101906200003791906200042c565b6200006962000054620000eb640100000000026401000000009004565b620000f3640100000000026401000000009004565b836001908051906020019062000081929190620001b7565b5082600290805190602001906200009a929190620001b7565b508060039080519060200190620000b3929190620001b7565b5081600460006101000a81548160ff02191690836001811115620000dc57620000db620004fb565b5b0217905550505050506200058f565b600033905090565b60008060009054906101000a900473ffffffffffffffffffffffffffffffffffffffff169050816000806101000a81548173ffffffffffffffffffffffffffffffffffffffff021916908373ffffffffffffffffffffffffffffffffffffffff1602179055508173ffffffffffffffffffffffffffffffffffffffff168173ffffffffffffffffffffffffffffffffffffffff167f8be0079c531659141344cd1fd0a4f28419497f9722a3daafe3b4186f6b6457e060405160405180910390a35050565b828054620001c59062000559565b90600052602060002090601f016020900481019282620001e9576000855562000235565b82601f106200020457805160ff191683800117855562000235565b8280016001018555821562000235579182015b828111156200023457825182559160200191906001019062000217565b5b50905062000244919062000248565b5090565b5b808211156200026357600081600090555060010162000249565b5090565b6000604051905090565b600080fd5b600080fd5b600080fd5b600080fd5b6000601f19601f8301169050919050565b7f4e487b7100000000000000000000000000000000000000000000000000000000600052604160045260246000fd5b620002d08262000285565b810181811067ffffffffffffffff82111715620002f257620002f162000296565b5b80604052505050565b60006200030762000267565b9050620003158282620002c5565b919050565b600067ffffffffffffffff82111562000338576200033762000296565b5b620003438262000285565b9050602081019050919050565b60005b838110156200037057808201518184015260208101905062000353565b8381111562000380576000848401525b50505050565b60006200039d62000397846200031a565b620002fb565b905082815260208101848484011115620003bc57620003bb62000280565b5b620003c984828562000350565b509392505050565b600082601f830112620003e957620003e86200027b565b5b8151620003fb84826020860162000386565b91505092915050565b600281106200041257600080fd5b50565b600081519050620004268162000404565b92915050565b6000806000806080858703121562000449576200044862000271565b5b600085015167ffffffffffffffff8111156200046a576200046962000276565b5b6200047887828801620003d1565b945050602085015167ffffffffffffffff8111156200049c576200049b62000276565b5b620004aa87828801620003d1565b9350506040620004bd8782880162000415565b925050606085015167ffffffffffffffff811115620004e157620004e062000276565b5b620004ef87828801620003d1565b91505092959194509250565b7f4e487b7100000000000000000000000000000000000000000000000000000000600052602160045260246000fd5b7f4e487b7100000000000000000000000000000000000000000000000000000000600052602260045260246000fd5b600060028204905060018216806200057257607f821691505b602082108114156200058957620005886200052a565b5b50919050565b612399806200059f6000396000f3fe608060405234801561001057600080fd5b506004361061011d576000357c010000000000000000000000000000000000000000000000000000000090048063715018a6116100b4578063d52cb17c11610083578063d52cb17c14610282578063d8d8e93c146102b8578063ee760f38146102e8578063f2fde38b146103185761011d565b8063715018a6146102205780637284e4161461022a5780638da5cb5b14610248578063b7e2077e146102665761011d565b80634ec5ff0a116100f05780634ec5ff0a1461019a57806352f6747a146101b657806363239977146101d457806367561d93146102045761011d565b806301cc15331461012257806306fdde031461014057806329adec141461015e57806336e70eaa1461017c575b600080fd5b61012a610334565b604051610137919061187e565b60405180910390f35b61014861033a565b6040516101559190611932565b60405180910390f35b6101666103c8565b60405161017391906119cb565b60405180910390f35b6101846103db565b6040516101919190611b04565b60405180910390f35b6101b460048036038101906101af9190611be7565b610557565b005b6101be610a44565b6040516101cb9190611932565b60405180910390f35b6101ee60048036038101906101e99190611c7a565b610ad2565b6040516101fb9190611d83565b60405180910390f35b61021e60048036038101906102199190611da5565b610d48565b005b610228610e73565b005b610232610efb565b60405161023f9190611932565b60405180910390f35b610250610f89565b60405161025d9190611de1565b60405180910390f35b610280600480360381019061027b9190611da5565b610fb2565b005b61029c60048036038101906102979190611c7a565b6110dd565b6040516102af9796959493929190611e1a565b60405180910390f35b6102d260048036038101906102cd9190611e90565b611248565b6040516102df919061201b565b60405180910390f35b61030260048036038101906102fd919061203d565b6114e2565b60405161030f919061206a565b60405180910390f35b610332600480360381019061032d9190611da5565b61151a565b005b60055481565b60018054610347906120b4565b80601f0160208091040260200160405190810160405280929190818152602001828054610373906120b4565b80156103c05780601f10610395576101008083540402835291602001916103c0565b820191906000526020600020905b8154815290600101906020018083116103a357829003601f168201915b505050505081565b600460009054906101000a900460ff1681565b6103e36116de565b6103eb6116de565b600180546103f8906120b4565b80601f0160208091040260200160405190810160405280929190818152602001828054610424906120b4565b80156104715780601f1061044657610100808354040283529160200191610471565b820191906000526020600020905b81548152906001019060200180831161045457829003601f168201915b505050505081604001819052506002805461048b906120b4565b80601f01602080910402602001604051908101604052809291908181526020018280546104b7906120b4565b80156105045780601f106104d957610100808354040283529160200191610504565b820191906000526020600020905b8154815290600101906020018083116104e757829003601f168201915b50505050508160600181905250600460009054906101000a900460ff168160200190600181111561053857610537611954565b5b9081600181111561054c5761054b611954565b5b815250508091505090565b60011515600660003373ffffffffffffffffffffffffffffffffffffffff1673ffffffffffffffffffffffffffffffffffffffff16815260200190815260200160002060009054906101000a900460ff16151514806105e857506105b9610f89565b73ffffffffffffffffffffffffffffffffffffffff163373ffffffffffffffffffffffffffffffffffffffff16145b610627576040517f08c379a000000000000000000000000000000000000000000000000000000000815260040161061e90612132565b60405180910390fd5b61062f611735565b60018160400190151590811515815250508181606001901515908115158152505060055481600001818152505082816020019073ffffffffffffffffffffffffffffffffffffffff16908173ffffffffffffffffffffffffffffffffffffffff1681525050838160a0019077ffffffffffffffffffffffffffffffffffffffffffffffff1916908177ffffffffffffffffffffffffffffffffffffffffffffffff19168152505084816080019077ffffffffffffffffffffffffffffffffffffffffffffffff1916908177ffffffffffffffffffffffffffffffffffffffffffffffff1916815250506000600860008777ffffffffffffffffffffffffffffffffffffffffffffffff191677ffffffffffffffffffffffffffffffffffffffffffffffff191681526020019081526020016000208054905014156107d6578460076000600554815260200190815260200160002060006101000a81548167ffffffffffffffff02191690837801000000000000000000000000000000000000000000000000900402179055506005600081546107ca90612181565b91905081905550610898565b60001515600860008777ffffffffffffffffffffffffffffffffffffffffffffffff191677ffffffffffffffffffffffffffffffffffffffffffffffff19168152602001908152602001600020600081548110610836576108356121ca565b5b906000526020600020906004020160010160159054906101000a900460ff16151514610897576040517f08c379a000000000000000000000000000000000000000000000000000000000815260040161088e90612245565b60405180910390fd5b5b600860008677ffffffffffffffffffffffffffffffffffffffffffffffff191677ffffffffffffffffffffffffffffffffffffffffffffffff191681526020019081526020016000208190806001815401808255809150506001900390600052602060002090600402016000909190919091506000820151816000015560208201518160010160006101000a81548173ffffffffffffffffffffffffffffffffffffffff021916908373ffffffffffffffffffffffffffffffffffffffff16021790555060408201518160010160146101000a81548160ff02191690831515021790555060608201518160010160156101000a81548160ff02191690831515021790555060808201518160010160166101000a81548167ffffffffffffffff021916908378010000000000000000000000000000000000000000000000009004021790555060a08201518160020160006101000a81548167ffffffffffffffff021916908378010000000000000000000000000000000000000000000000009004021790555060c0820151816003019080519060200190610a3a9291906117c2565b5050505050505050565b60038054610a51906120b4565b80601f0160208091040260200160405190810160405280929190818152602001828054610a7d906120b4565b8015610aca5780601f10610a9f57610100808354040283529160200191610aca565b820191906000526020600020905b815481529060010190602001808311610aad57829003601f168201915b505050505081565b610ada611735565b600860008477ffffffffffffffffffffffffffffffffffffffffffffffff191677ffffffffffffffffffffffffffffffffffffffffffffffff191681526020019081526020016000208281548110610b3557610b346121ca565b5b90600052602060002090600402016040518060e0016040529081600082015481526020016001820160009054906101000a900473ffffffffffffffffffffffffffffffffffffffff1673ffffffffffffffffffffffffffffffffffffffff1673ffffffffffffffffffffffffffffffffffffffff1681526020016001820160149054906101000a900460ff161515151581526020016001820160159054906101000a900460ff161515151581526020016001820160169054906101000a900478010000000000000000000000000000000000000000000000000277ffffffffffffffffffffffffffffffffffffffffffffffff191677ffffffffffffffffffffffffffffffffffffffffffffffff191681526020016002820160009054906101000a900478010000000000000000000000000000000000000000000000000277ffffffffffffffffffffffffffffffffffffffffffffffff191677ffffffffffffffffffffffffffffffffffffffffffffffff19168152602001600382018054610cbe906120b4565b80601f0160208091040260200160405190810160405280929190818152602001828054610cea906120b4565b8015610d375780601f10610d0c57610100808354040283529160200191610d37565b820191906000526020600020905b815481529060010190602001808311610d1a57829003601f168201915b505050505081525050905092915050565b60011515600660003373ffffffffffffffffffffffffffffffffffffffff1673ffffffffffffffffffffffffffffffffffffffff16815260200190815260200160002060009054906101000a900460ff1615151480610dd95750610daa610f89565b73ffffffffffffffffffffffffffffffffffffffff163373ffffffffffffffffffffffffffffffffffffffff16145b610e18576040517f08c379a0000000000000000000000000000000000000000000000000000000008152600401610e0f90612132565b60405180910390fd5b6001600660008373ffffffffffffffffffffffffffffffffffffffff1673ffffffffffffffffffffffffffffffffffffffff16815260200190815260200160002060006101000a81548160ff02191690831515021790555050565b610e7b611612565b73ffffffffffffffffffffffffffffffffffffffff16610e99610f89565b73ffffffffffffffffffffffffffffffffffffffff1614610eef576040517f08c379a0000000000000000000000000000000000000000000000000000000008152600401610ee6906122b1565b60405180910390fd5b610ef9600061161a565b565b60028054610f08906120b4565b80601f0160208091040260200160405190810160405280929190818152602001828054610f34906120b4565b8015610f815780601f10610f5657610100808354040283529160200191610f81565b820191906000526020600020905b815481529060010190602001808311610f6457829003601f168201915b505050505081565b60008060009054906101000a900473ffffffffffffffffffffffffffffffffffffffff16905090565b60011515600660003373ffffffffffffffffffffffffffffffffffffffff1673ffffffffffffffffffffffffffffffffffffffff16815260200190815260200160002060009054906101000a900460ff16151514806110435750611014610f89565b73ffffffffffffffffffffffffffffffffffffffff163373ffffffffffffffffffffffffffffffffffffffff16145b611082576040517f08c379a000000000000000000000000000000000000000000000000000000000815260040161107990612132565b60405180910390fd5b6000600660008373ffffffffffffffffffffffffffffffffffffffff1673ffffffffffffffffffffffffffffffffffffffff16815260200190815260200160002060006101000a81548160ff02191690831515021790555050565b600860205281600052604060002081815481106110f957600080fd5b9060005260206000209060040201600091509150508060000154908060010160009054906101000a900473ffffffffffffffffffffffffffffffffffffffff16908060010160149054906101000a900460ff16908060010160159054906101000a900460ff16908060010160169054906101000a9004780100000000000000000000000000000000000000000000000002908060020160009054906101000a9004780100000000000000000000000000000000000000000000000002908060030180546111c5906120b4565b80601f01602080910402602001604051908101604052809291908181526020018280546111f1906120b4565b801561123e5780601f106112135761010080835404028352916020019161123e565b820191906000526020600020905b81548152906001019060200180831161122157829003601f168201915b5050505050905087565b6060600860008377ffffffffffffffffffffffffffffffffffffffffffffffff191677ffffffffffffffffffffffffffffffffffffffffffffffff19168152602001908152602001600020805480602002602001604051908101604052809291908181526020016000905b828210156114d757838290600052602060002090600402016040518060e0016040529081600082015481526020016001820160009054906101000a900473ffffffffffffffffffffffffffffffffffffffff1673ffffffffffffffffffffffffffffffffffffffff1673ffffffffffffffffffffffffffffffffffffffff1681526020016001820160149054906101000a900460ff161515151581526020016001820160159054906101000a900460ff161515151581526020016001820160169054906101000a900478010000000000000000000000000000000000000000000000000277ffffffffffffffffffffffffffffffffffffffffffffffff191677ffffffffffffffffffffffffffffffffffffffffffffffff191681526020016002820160009054906101000a900478010000000000000000000000000000000000000000000000000277ffffffffffffffffffffffffffffffffffffffffffffffff191677ffffffffffffffffffffffffffffffffffffffffffffffff19168152602001600382018054611446906120b4565b80601f0160208091040260200160405190810160405280929190818152602001828054611472906120b4565b80156114bf5780601f10611494576101008083540402835291602001916114bf565b820191906000526020600020905b8154815290600101906020018083116114a257829003601f168201915b505050505081525050815260200190600101906112b3565b505050509050919050565b60076020528060005260406000206000915054906101000a900478010000000000000000000000000000000000000000000000000281565b611522611612565b73ffffffffffffffffffffffffffffffffffffffff16611540610f89565b73ffffffffffffffffffffffffffffffffffffffff1614611596576040517f08c379a000000000000000000000000000000000000000000000000000000000815260040161158d906122b1565b60405180910390fd5b600073ffffffffffffffffffffffffffffffffffffffff168173ffffffffffffffffffffffffffffffffffffffff161415611606576040517f08c379a00000000000000000000000000000000000000000000000000000000081526004016115fd90612343565b60405180910390fd5b61160f8161161a565b50565b600033905090565b60008060009054906101000a900473ffffffffffffffffffffffffffffffffffffffff169050816000806101000a81548173ffffffffffffffffffffffffffffffffffffffff021916908373ffffffffffffffffffffffffffffffffffffffff1602179055508173ffffffffffffffffffffffffffffffffffffffff168173ffffffffffffffffffffffffffffffffffffffff167f8be0079c531659141344cd1fd0a4f28419497f9722a3daafe3b4186f6b6457e060405160405180910390a35050565b6040518060a00160405280600073ffffffffffffffffffffffffffffffffffffffff1681526020016000600181111561171a57611719611954565b5b81526020016060815260200160608152602001606081525090565b6040518060e0016040528060008152602001600073ffffffffffffffffffffffffffffffffffffffff168152602001600015158152602001600015158152602001600077ffffffffffffffffffffffffffffffffffffffffffffffff19168152602001600077ffffffffffffffffffffffffffffffffffffffffffffffff19168152602001606081525090565b8280546117ce906120b4565b90600052602060002090601f0160209004810192826117f05760008555611837565b82601f1061180957805160ff1916838001178555611837565b82800160010185558215611837579182015b8281111561183657825182559160200191906001019061181b565b5b5090506118449190611848565b5090565b5b80821115611861576000816000905550600101611849565b5090565b6000819050919050565b61187881611865565b82525050565b6000602082019050611893600083018461186f565b92915050565b600081519050919050565b600082825260208201905092915050565b60005b838110156118d35780820151818401526020810190506118b8565b838111156118e2576000848401525b50505050565b6000601f19601f8301169050919050565b600061190482611899565b61190e81856118a4565b935061191e8185602086016118b5565b611927816118e8565b840191505092915050565b6000602082019050818103600083015261194c81846118f9565b905092915050565b7f4e487b7100000000000000000000000000000000000000000000000000000000600052602160045260246000fd5b6002811061199457611993611954565b5b50565b60008190506119a582611983565b919050565b60006119b582611997565b9050919050565b6119c5816119aa565b82525050565b60006020820190506119e060008301846119bc565b92915050565b600073ffffffffffffffffffffffffffffffffffffffff82169050919050565b6000611a11826119e6565b9050919050565b611a2181611a06565b82525050565b611a30816119aa565b82525050565b600082825260208201905092915050565b6000611a5282611899565b611a5c8185611a36565b9350611a6c8185602086016118b5565b611a75816118e8565b840191505092915050565b600060a083016000830151611a986000860182611a18565b506020830151611aab6020860182611a27565b5060408301518482036040860152611ac38282611a47565b91505060608301518482036060860152611add8282611a47565b91505060808301518482036080860152611af78282611a47565b9150508091505092915050565b60006020820190508181036000830152611b1e8184611a80565b905092915050565b600080fd5b60007fffffffffffffffff00000000000000000000000000000000000000000000000082169050919050565b611b6081611b2b565b8114611b6b57600080fd5b50565b600081359050611b7d81611b57565b92915050565b611b8c81611a06565b8114611b9757600080fd5b50565b600081359050611ba981611b83565b92915050565b60008115159050919050565b611bc481611baf565b8114611bcf57600080fd5b50565b600081359050611be181611bbb565b92915050565b60008060008060808587031215611c0157611c00611b26565b5b6000611c0f87828801611b6e565b9450506020611c2087828801611b6e565b9350506040611c3187828801611b9a565b9250506060611c4287828801611bd2565b91505092959194509250565b611c5781611865565b8114611c6257600080fd5b50565b600081359050611c7481611c4e565b92915050565b60008060408385031215611c9157611c90611b26565b5b6000611c9f85828601611b6e565b9250506020611cb085828601611c65565b9150509250929050565b611cc381611865565b82525050565b611cd281611baf565b82525050565b611ce181611b2b565b82525050565b600060e083016000830151611cff6000860182611cba565b506020830151611d126020860182611a18565b506040830151611d256040860182611cc9565b506060830151611d386060860182611cc9565b506080830151611d4b6080860182611cd8565b5060a0830151611d5e60a0860182611cd8565b5060c083015184820360c0860152611d768282611a47565b9150508091505092915050565b60006020820190508181036000830152611d9d8184611ce7565b905092915050565b600060208284031215611dbb57611dba611b26565b5b6000611dc984828501611b9a565b91505092915050565b611ddb81611a06565b82525050565b6000602082019050611df66000830184611dd2565b92915050565b611e0581611baf565b82525050565b611e1481611b2b565b82525050565b600060e082019050611e2f600083018a61186f565b611e3c6020830189611dd2565b611e496040830188611dfc565b611e566060830187611dfc565b611e636080830186611e0b565b611e7060a0830185611e0b565b81810360c0830152611e8281846118f9565b905098975050505050505050565b600060208284031215611ea657611ea5611b26565b5b6000611eb484828501611b6e565b91505092915050565b600081519050919050565b600082825260208201905092915050565b6000819050602082019050919050565b600060e083016000830151611f016000860182611cba565b506020830151611f146020860182611a18565b506040830151611f276040860182611cc9565b506060830151611f3a6060860182611cc9565b506080830151611f4d6080860182611cd8565b5060a0830151611f6060a0860182611cd8565b5060c083015184820360c0860152611f788282611a47565b9150508091505092915050565b6000611f918383611ee9565b905092915050565b6000602082019050919050565b6000611fb182611ebd565b611fbb8185611ec8565b935083602082028501611fcd85611ed9565b8060005b858110156120095784840389528151611fea8582611f85565b9450611ff583611f99565b925060208a01995050600181019050611fd1565b50829750879550505050505092915050565b600060208201905081810360008301526120358184611fa6565b905092915050565b60006020828403121561205357612052611b26565b5b600061206184828501611c65565b91505092915050565b600060208201905061207f6000830184611e0b565b92915050565b7f4e487b7100000000000000000000000000000000000000000000000000000000600052602260045260246000fd5b600060028204905060018216806120cc57607f821691505b602082108114156120e0576120df612085565b5b50919050565b7f4e6f7420617574686f72697a6564000000000000000000000000000000000000600082015250565b600061211c600e836118a4565b9150612127826120e6565b602082019050919050565b6000602082019050818103600083015261214b8161210f565b9050919050565b7f4e487b7100000000000000000000000000000000000000000000000000000000600052601160045260246000fd5b600061218c82611865565b91507fffffffffffffffffffffffffffffffffffffffffffffffffffffffffffffffff8214156121bf576121be612152565b5b600182019050919050565b7f4e487b7100000000000000000000000000000000000000000000000000000000600052603260045260246000fd5b7f416c7265616479206861766520746869732074797065206f66206d6f64756c65600082015250565b600061222f6020836118a4565b915061223a826121f9565b602082019050919050565b6000602082019050818103600083015261225e81612222565b9050919050565b7f4f776e61626c653a2063616c6c6572206973206e6f7420746865206f776e6572600082015250565b600061229b6020836118a4565b91506122a682612265565b602082019050919050565b600060208201905081810360008301526122ca8161228e565b9050919050565b7f4f776e61626c653a206e6577206f776e657220697320746865207a65726f206160008201527f6464726573730000000000000000000000000000000000000000000000000000602082015250565b600061232d6026836118a4565b9150612338826122d1565b604082019050919050565b6000602082019050818103600083015261235c81612320565b905091905056fea2646970667358221220c506d2103a9ffbfe31c0c5d21e7c42f5d77f4b0f9a7899233297b4d9505222f764736f6c63430008090033a264697066735822122036e15561959079a4253c5f90a2a1e4b89ba3d00a1ac4ecab8d798e32e3b63c3764736f6c63430008090033",
  "immutableReferences": {},
  "source": "// SPDX-License-Identifier: MIT\npragma solidity ^0.8.9;\n\nimport \"@openzeppelin/contracts/utils/math/SafeMath.sol\";\nimport \"@openzeppelin/contracts/access/Ownable.sol\";\n\nimport './Modules/interfaces/IModule.sol';\nimport './DaoBase.sol';\nimport './Data.sol';\n\n/**\n* @title DaosFactory\n* @author chixx.eth & mourad\n* @notice Smart contract for MY-DAO create/save daos, add/activate modules\n*/\ncontract DaosFactory is Ownable {\n  \n  using SafeMath for uint256;\n\n  /// @notice counter of how many dao are created by DaosFactory\n  uint256 private daoId;\n\n  /// @notice store daos create by DaosFactory\n  deployedDao[] public daos;\n\n  /**\n  * @notice store daos owners\n  * @return bool true or false if user is owner\n  */\n  mapping(address => mapping(address => bool)) public daoOwners;\n\n  /// @notice store all modules\n  mapping(bytes8 => mapping(bytes8 => Data.Module)) public modulesDaos;\n\n  /// @notice struct that store info about deployed Daos\n  struct deployedDao {\n    address owner;\n    address daoAddress;\n  }\n\n  event DaoCreated(address user, string name, address daoAddress);\n  event ModuleActivated(address user, string name, address daoAddress);\n\n  /// @notice check if msg.sender is the owner of the dao\n  modifier onlyDaoOwners(address _daoAddress) {\n    require(daoOwners[_daoAddress][msg.sender], \"Invalid User: DaosFactory\");\n    _;\n  }\n\n  /**\n  * @notice get all daos deployed by MY-DAO\n  * @return deployedDao array of all deployedDao see struct deployedDao\n  */\n  function getdeployedDaos() external view returns (deployedDao[] memory) {\n    return daos;\n  }\n\n  /**\n  * @notice activeate a new module for the Dao Owner\n  * @param _daoAddress: the dao address who activate the module\n  * @param _type: the type hash of the module see ./Data.sol\n  * @param _code: the code hash of the module see ./Data.sol\n  * @return address of the module deployed\n  */\n  function activateModuleForDao(address _daoAddress, bytes8 _type, bytes8 _code) external onlyDaoOwners(_daoAddress) returns(address) {\n    require(modulesDaos[_type][_code].isActive == true, \"Module not found\");\n    return (_activateModuleForDao(_daoAddress, _type, _code));\n  }\n\n  /**\n  * @notice activeate a new module logic\n  * @param _daoAddress: the dao address who activate the module\n  * @param _type: the type hash of the module see ./Data.sol\n  * @param _code: the code hash of the module see ./Data.sol\n  * @return address of the module deployed\n  */\n  function _activateModuleForDao(address _daoAddress, bytes8 _type, bytes8 _code)\n    internal\n    returns(address)\n  {\n    require(modulesDaos[_type][_code].isActive == true, \"Module not found\");\n    IModule(modulesDaos[_type][_code].moduleAddress).addDao(_daoAddress, msg.sender);\n    DaoBase(_daoAddress).addModule(_type, _code, modulesDaos[_type][_code].moduleAddress,\n      modulesDaos[_type][_code].isExclusive);\n    return modulesDaos[_type][_code].moduleAddress;  \n  }\n\n  /**\n  * @notice add a new module, MY-DAO owner only\n  * @param _moduleAddress: the dao address to add\n  * @param _type: the type hash of the module see ./Data.sol\n  * @param _code: the code hash of the module see ./Data.sol\n  * @param _isExclusive: if the type module can have multiple modules\n  */\n  function addModule(address _moduleAddress, bytes8 _type, bytes8 _code, bool _isExclusive)\n    public\n    onlyOwner\n  {\n    Data.Module memory module;\n    module.isActive = true;\n    module.isExclusive = _isExclusive;\n    module.moduleType = _type;\n    module.moduleCode = _code;\n    module.moduleAddress = _moduleAddress;\n    modulesDaos[_type][_code] = module;\n  }\n\n  /**\n  * @notice create a new dao and store in DaosFactory\n  * @param _name: the dao name\n  * @param _description: the dao description\n  * @param _visibility: the visibility see ./Data.sol\n  * @param _rules: the dao rules\n  * @param _modules: array of modules type and code hash to add \n  */\n  function createDAO(\n    string calldata _name,\n    string calldata _description,\n    Data.visibilityEnum _visibility,\n    string memory _rules,\n    Data.ModuleToActivate[] memory _modules\n  )\n    public\n  {\n    require(_modules.length < 10, \"Modules must be less than 10.\");\n    require(bytes(_name).length != 0, \"Name can not be empty\");    \n    deployedDao memory _dao;\n    DaoBase dao = new DaoBase(_name, _description, _visibility, _rules);\n    dao.authorizeContract(address(this));\n    dao.transferOwnership(msg.sender);\n    _dao.owner = msg.sender;\n    _dao.daoAddress = address(dao);\n    daos.push(_dao);\n\n    for(uint i=0; i < _modules.length; ++i) {\n      require(modulesDaos[_modules[i].moduleType][_modules[i].moduleCode].isActive == true, \"Module not found\");\n      _activateModuleForDao(\n        address(dao),\n        _modules[i].moduleType,\n        _modules[i].moduleCode\n      );\n    }\n    daoOwners[address(dao)][msg.sender] = true;\n    emit DaoCreated(msg.sender, _name, _dao.daoAddress);\n  }\n\n  /**\n  * @notice create a bytes8 hash\n  * @param _name: string to hash\n  * @return bytes8 hash\n  */\n  function hash(string memory _name) external pure returns(bytes8) {\n    return (bytes8(keccak256(abi.encode(_name))));\n  }\n}",
  "sourcePath": "/Users/wasim/Documents/GitHub/VotingDAO/DAOFactory/DAOFactory/contracts/DaosFactory.sol",
  "compiler": {
    "name": "solc",
    "version": "0.8.9+commit.e5eed63a.Emscripten.clang"
  },
  "schemaVersion": "3.4.15",
  "updatedAt": "2023-08-31T18:04:16.321Z",
  "devdoc": {
    "author": "chixx.eth & mourad",
    "kind": "dev",
    "methods": {
      "activateModuleForDao(address,bytes8,bytes8)": {
        "params": {
          "_code": ": the code hash of the module see ./Data.sol",
          "_daoAddress": ": the dao address who activate the module",
          "_type": ": the type hash of the module see ./Data.sol"
        },
        "returns": {
          "_0": "address of the module deployed"
        }
      },
      "addModule(address,bytes8,bytes8,bool)": {
        "params": {
          "_code": ": the code hash of the module see ./Data.sol",
          "_isExclusive": ": if the type module can have multiple modules",
          "_moduleAddress": ": the dao address to add",
          "_type": ": the type hash of the module see ./Data.sol"
        }
      },
      "createDAO(string,string,uint8,string,(bytes8,bytes8)[])": {
        "params": {
          "_description": ": the dao description",
          "_modules": ": array of modules type and code hash to add ",
          "_name": ": the dao name",
          "_rules": ": the dao rules",
          "_visibility": ": the visibility see ./Data.sol"
        }
      },
      "getdeployedDaos()": {
        "returns": {
          "_0": "deployedDao array of all deployedDao see struct deployedDao"
        }
      },
      "hash(string)": {
        "params": {
          "_name": ": string to hash"
        },
        "returns": {
          "_0": "bytes8 hash"
        }
      },
      "owner()": {
        "details": "Returns the address of the current owner."
      },
      "renounceOwnership()": {
        "details": "Leaves the contract without owner. It will not be possible to call `onlyOwner` functions anymore. Can only be called by the current owner. NOTE: Renouncing ownership will leave the contract without an owner, thereby removing any functionality that is only available to the owner."
      },
      "transferOwnership(address)": {
        "details": "Transfers ownership of the contract to a new account (`newOwner`). Can only be called by the current owner."
      }
    },
    "stateVariables": {
      "daoOwners": {
        "return": "bool true or false if user is owner",
        "returns": {
          "_0": "bool true or false if user is owner"
        }
      }
    },
    "title": "DaosFactory",
    "version": 1
  },
  "userdoc": {
    "kind": "user",
    "methods": {
      "activateModuleForDao(address,bytes8,bytes8)": {
        "notice": "activeate a new module for the Dao Owner"
      },
      "addModule(address,bytes8,bytes8,bool)": {
        "notice": "add a new module, MY-DAO owner only"
      },
      "createDAO(string,string,uint8,string,(bytes8,bytes8)[])": {
        "notice": "create a new dao and store in DaosFactory"
      },
      "daoOwners(address,address)": {
        "notice": "store daos owners"
      },
      "daos(uint256)": {
        "notice": "store daos create by DaosFactory"
      },
      "getdeployedDaos()": {
        "notice": "get all daos deployed by MY-DAO"
      },
      "hash(string)": {
        "notice": "create a bytes8 hash"
      },
      "modulesDaos(bytes8,bytes8)": {
        "notice": "store all modules"
      }
    },
    "notice": "Smart contract for MY-DAO create/save daos, add/activate modules",
    "version": 1
  }
}