{
  "contractName": "InviteMembershipModule",
  "abi": [
    {
      "inputs": [
        {
          "internalType": "address",
          "name": "_contractFactory",
          "type": "address"
        }
      ],
      "stateMutability": "nonpayable",
      "type": "constructor"
    },
    {
      "anonymous": false,
      "inputs": [
        {
          "indexed": false,
          "internalType": "address",
          "name": "newMember",
          "type": "address"
        },
        {
          "indexed": false,
          "internalType": "address",
          "name": "acceptorAddress",
          "type": "address"
        }
      ],
      "name": "MemberAccepted",
      "type": "event"
    },
    {
      "anonymous": false,
      "inputs": [
        {
          "indexed": false,
          "internalType": "address",
          "name": "newMember",
          "type": "address"
        },
        {
          "indexed": false,
          "internalType": "address",
          "name": "adderAddress",
          "type": "address"
        }
      ],
      "name": "MemberAdded",
      "type": "event"
    },
    {
      "anonymous": false,
      "inputs": [
        {
          "indexed": false,
          "internalType": "address",
          "name": "memberRequestor",
          "type": "address"
        }
      ],
      "name": "MemberAskedJoin",
      "type": "event"
    },
    {
      "anonymous": false,
      "inputs": [
        {
          "indexed": false,
          "internalType": "address",
          "name": "memberInvited",
          "type": "address"
        },
        {
          "indexed": false,
          "internalType": "address",
          "name": "memberInvitor",
          "type": "address"
        }
      ],
      "name": "MemberInvited",
      "type": "event"
    },
    {
      "anonymous": false,
      "inputs": [
        {
          "indexed": false,
          "internalType": "address",
          "name": "memberJoined",
          "type": "address"
        }
      ],
      "name": "MemberJoined",
      "type": "event"
    },
    {
      "anonymous": false,
      "inputs": [
        {
          "indexed": true,
          "internalType": "address",
          "name": "previousOwner",
          "type": "address"
        },
        {
          "indexed": true,
          "internalType": "address",
          "name": "newOwner",
          "type": "address"
        }
      ],
      "name": "OwnershipTransferred",
      "type": "event"
    },
    {
      "inputs": [
        {
          "internalType": "address",
          "name": "",
          "type": "address"
        },
        {
          "internalType": "address",
          "name": "",
          "type": "address"
        }
      ],
      "name": "authorizedAddress",
      "outputs": [
        {
          "internalType": "bool",
          "name": "",
          "type": "bool"
        }
      ],
      "stateMutability": "view",
      "type": "function"
    },
    {
      "inputs": [
        {
          "internalType": "address",
          "name": "",
          "type": "address"
        }
      ],
      "name": "daos",
      "outputs": [
        {
          "internalType": "address",
          "name": "addressDao",
          "type": "address"
        },
        {
          "internalType": "uint256",
          "name": "membersCount",
          "type": "uint256"
        },
        {
          "internalType": "bool",
          "name": "isActive",
          "type": "bool"
        }
      ],
      "stateMutability": "view",
      "type": "function"
    },
    {
      "inputs": [],
      "name": "moduleCode",
      "outputs": [
        {
          "internalType": "bytes8",
          "name": "",
          "type": "bytes8"
        }
      ],
      "stateMutability": "view",
      "type": "function"
    },
    {
      "inputs": [],
      "name": "moduleType",
      "outputs": [
        {
          "internalType": "bytes8",
          "name": "",
          "type": "bytes8"
        }
      ],
      "stateMutability": "view",
      "type": "function"
    },
    {
      "inputs": [],
      "name": "owner",
      "outputs": [
        {
          "internalType": "address",
          "name": "",
          "type": "address"
        }
      ],
      "stateMutability": "view",
      "type": "function"
    },
    {
      "inputs": [],
      "name": "renounceOwnership",
      "outputs": [],
      "stateMutability": "nonpayable",
      "type": "function"
    },
    {
      "inputs": [
        {
          "internalType": "address",
          "name": "newOwner",
          "type": "address"
        }
      ],
      "name": "transferOwnership",
      "outputs": [],
      "stateMutability": "nonpayable",
      "type": "function"
    },
    {
      "inputs": [],
      "name": "visibility",
      "outputs": [
        {
          "internalType": "enum Data.visibilityEnum",
          "name": "",
          "type": "uint8"
        }
      ],
      "stateMutability": "view",
      "type": "function"
    },
    {
      "inputs": [
        {
          "internalType": "address",
          "name": "_contractDao",
          "type": "address"
        },
        {
          "internalType": "address",
          "name": "_member",
          "type": "address"
        }
      ],
      "name": "getMemberInfo",
      "outputs": [
        {
          "components": [
            {
              "internalType": "enum Data.memberStatus",
              "name": "status",
              "type": "uint8"
            },
            {
              "internalType": "uint256",
              "name": "joinTime",
              "type": "uint256"
            }
          ],
          "internalType": "struct Data.member",
          "name": "",
          "type": "tuple"
        }
      ],
      "stateMutability": "view",
      "type": "function"
    },
    {
      "inputs": [
        {
          "internalType": "address",
          "name": "_contractDao",
          "type": "address"
        },
        {
          "internalType": "uint256",
          "name": "_id",
          "type": "uint256"
        }
      ],
      "name": "getAddrById",
      "outputs": [
        {
          "internalType": "address",
          "name": "",
          "type": "address"
        }
      ],
      "stateMutability": "view",
      "type": "function"
    },
    {
      "inputs": [
        {
          "internalType": "address",
          "name": "_contractDao",
          "type": "address"
        }
      ],
      "name": "getMembersCount",
      "outputs": [
        {
          "internalType": "uint256",
          "name": "",
          "type": "uint256"
        }
      ],
      "stateMutability": "view",
      "type": "function"
    },
    {
      "inputs": [
        {
          "internalType": "address",
          "name": "_contractDao",
          "type": "address"
        },
        {
          "internalType": "address",
          "name": "_addressMember",
          "type": "address"
        }
      ],
      "name": "addMember",
      "outputs": [],
      "stateMutability": "nonpayable",
      "type": "function"
    },
    {
      "inputs": [
        {
          "internalType": "address",
          "name": "_contractDao",
          "type": "address"
        },
        {
          "internalType": "address",
          "name": "_addressMember",
          "type": "address"
        }
      ],
      "name": "acceptMember",
      "outputs": [],
      "stateMutability": "nonpayable",
      "type": "function"
    },
    {
      "inputs": [
        {
          "internalType": "address",
          "name": "_contractDao",
          "type": "address"
        },
        {
          "internalType": "address",
          "name": "_addressMember",
          "type": "address"
        }
      ],
      "name": "inviteMember",
      "outputs": [],
      "stateMutability": "nonpayable",
      "type": "function"
    },
    {
      "inputs": [
        {
          "internalType": "address",
          "name": "_contractDao",
          "type": "address"
        }
      ],
      "name": "requestJoin",
      "outputs": [],
      "stateMutability": "nonpayable",
      "type": "function"
    },
    {
      "inputs": [
        {
          "internalType": "address",
          "name": "_contractDao",
          "type": "address"
        },
        {
          "internalType": "address",
          "name": "_addressMember",
          "type": "address"
        }
      ],
      "name": "isActiveMember",
      "outputs": [
        {
          "internalType": "bool",
          "name": "",
          "type": "bool"
        }
      ],
      "stateMutability": "view",
      "type": "function"
    },
    {
      "inputs": [
        {
          "internalType": "address",
          "name": "_contractDao",
          "type": "address"
        }
      ],
      "name": "join",
      "outputs": [],
      "stateMutability": "nonpayable",
      "type": "function"
    },
    {
      "inputs": [
        {
          "internalType": "address",
          "name": "_contractDao",
          "type": "address"
        },
        {
          "internalType": "address",
          "name": "_memberDao",
          "type": "address"
        }
      ],
      "name": "addDao",
      "outputs": [],
      "stateMutability": "nonpayable",
      "type": "function"
    },
    {
      "inputs": [
        {
          "internalType": "address",
          "name": "_contractDao",
          "type": "address"
        },
        {
          "internalType": "address",
          "name": "_contractAddress",
          "type": "address"
        }
      ],
      "name": "authorizeAddress",
      "outputs": [],
      "stateMutability": "nonpayable",
      "type": "function"
    },
    {
      "inputs": [
        {
          "internalType": "address",
          "name": "_contractDao",
          "type": "address"
        },
        {
          "internalType": "address",
          "name": "_contractAddress",
          "type": "address"
        }
      ],
      "name": "denyAddress",
      "outputs": [],
      "stateMutability": "nonpayable",
      "type": "function"
    }
  ],
  "bytecode": "0x60806040523480156200001157600080fd5b5060405162002e3e38038062002e3e8339818101604052810190620000379190620001c0565b62000069620000546200008a640100000000026401000000009004565b62000092640100000000026401000000009004565b620000838162000092640100000000026401000000009004565b50620001f2565b600033905090565b60008060009054906101000a900473ffffffffffffffffffffffffffffffffffffffff169050816000806101000a81548173ffffffffffffffffffffffffffffffffffffffff021916908373ffffffffffffffffffffffffffffffffffffffff1602179055508173ffffffffffffffffffffffffffffffffffffffff168173ffffffffffffffffffffffffffffffffffffffff167f8be0079c531659141344cd1fd0a4f28419497f9722a3daafe3b4186f6b6457e060405160405180910390a35050565b600080fd5b600073ffffffffffffffffffffffffffffffffffffffff82169050919050565b600062000188826200015b565b9050919050565b6200019a816200017b565b8114620001a657600080fd5b50565b600081519050620001ba816200018f565b92915050565b600060208284031215620001d957620001d862000156565b5b6000620001e984828501620001a9565b91505092915050565b612c3c80620002026000396000f3fe608060405234801561001057600080fd5b5060043610610149576000357c0100000000000000000000000000000000000000000000000000000000900480638da5cb5b116100ca578063d2bdea341161008e578063d2bdea3414610360578063db4d7dcd1461037c578063e498116f14610398578063f0744c16146103b4578063f2fde38b146103d257610149565b80638da5cb5b146102945780638ecf7720146102b2578063945da9a1146102e25780639d58b15d14610312578063c25f3cf61461032e57610149565b806358a2d1371161011157806358a2d137146101f05780636465e69f1461020c578063715018a61461022a578063760b9c3414610234578063890222b61461026457610149565b806312ee7e411461014e57806328ffe6c81461016a57806329adec14146101865780632b3e5ed9146101a457806336048d5f146101c0575b600080fd5b6101686004803603810190610163919061247b565b6103ee565b005b610184600480360381019061017f91906124bb565b61070b565b005b61018e6109de565b60405161019b919061255f565b60405180910390f35b6101be60048036038101906101b9919061247b565b6109f1565b005b6101da60048036038101906101d5919061247b565b610ca5565b6040516101e7919061260a565b60405180910390f35b61020a600480360381019061020591906124bb565b610d84565b005b610214611112565b6040516102219190612660565b60405180910390f35b61023261113a565b005b61024e600480360381019061024991906124bb565b6111c2565b60405161025b919061268a565b60405180910390f35b61027e6004803603810190610279919061247b565b61120e565b60405161028b91906126c0565b60405180910390f35b61029c61123d565b6040516102a991906126ea565b60405180910390f35b6102cc60048036038101906102c7919061247b565b611266565b6040516102d991906126c0565b60405180910390f35b6102fc60048036038101906102f79190612731565b611326565b60405161030991906126ea565b60405180910390f35b61032c6004803603810190610327919061247b565b6113a4565b005b610348600480360381019061034391906124bb565b6118ff565b60405161035793929190612771565b60405180910390f35b61037a6004803603810190610375919061247b565b611956565b005b6103966004803603810190610391919061247b565b611eb0565b005b6103b260048036038101906103ad919061247b565b612058565b005b6103bc612200565b6040516103c99190612660565b60405180910390f35b6103ec60048036038101906103e791906124bb565b612228565b005b8160011515600260008373ffffffffffffffffffffffffffffffffffffffff1673ffffffffffffffffffffffffffffffffffffffff16815260200190815260200160002060003373ffffffffffffffffffffffffffffffffffffffff1673ffffffffffffffffffffffffffffffffffffffff16815260200190815260200160002060009054906101000a900460ff16151514806104bd575061048e61123d565b73ffffffffffffffffffffffffffffffffffffffff163373ffffffffffffffffffffffffffffffffffffffff16145b6104fc576040517f08c379a00000000000000000000000000000000000000000000000000000000081526004016104f390612805565b60405180910390fd5b600160008473ffffffffffffffffffffffffffffffffffffffff1673ffffffffffffffffffffffffffffffffffffffff16815260200190815260200160002060040160009054906101000a900460ff161561058c576040517f08c379a000000000000000000000000000000000000000000000000000000000815260040161058390612871565b60405180910390fd5b60018060008573ffffffffffffffffffffffffffffffffffffffff1673ffffffffffffffffffffffffffffffffffffffff16815260200190815260200160002060040160006101000a81548160ff02191690831515021790555082600160008573ffffffffffffffffffffffffffffffffffffffff1673ffffffffffffffffffffffffffffffffffffffff16815260200190815260200160002060000160006101000a81548173ffffffffffffffffffffffffffffffffffffffff021916908373ffffffffffffffffffffffffffffffffffffffff16021790555061067183836113a4565b6001600260008573ffffffffffffffffffffffffffffffffffffffff1673ffffffffffffffffffffffffffffffffffffffff16815260200190815260200160002060008473ffffffffffffffffffffffffffffffffffffffff1673ffffffffffffffffffffffffffffffffffffffff16815260200190815260200160002060006101000a81548160ff021916908315150217905550505050565b8060038081111561071f5761071e6124e8565b5b600160008373ffffffffffffffffffffffffffffffffffffffff1673ffffffffffffffffffffffffffffffffffffffff16815260200190815260200160002060030160003373ffffffffffffffffffffffffffffffffffffffff1673ffffffffffffffffffffffffffffffffffffffff16815260200190815260200160002060000160009054906101000a900460ff1660038111156107c1576107c06124e8565b5b1415610802576040517f08c379a00000000000000000000000000000000000000000000000000000000081526004016107f990612805565b60405180910390fd5b60016003811115610816576108156124e8565b5b600160008473ffffffffffffffffffffffffffffffffffffffff1673ffffffffffffffffffffffffffffffffffffffff16815260200190815260200160002060030160003373ffffffffffffffffffffffffffffffffffffffff1673ffffffffffffffffffffffffffffffffffffffff16815260200190815260200160002060000160009054906101000a900460ff1660038111156108b8576108b76124e8565b5b146108f8576040517f08c379a00000000000000000000000000000000000000000000000000000000081526004016108ef906128dd565b60405180910390fd5b6003600160008473ffffffffffffffffffffffffffffffffffffffff1673ffffffffffffffffffffffffffffffffffffffff16815260200190815260200160002060030160003373ffffffffffffffffffffffffffffffffffffffff1673ffffffffffffffffffffffffffffffffffffffff16815260200190815260200160002060000160006101000a81548160ff0219169083600381111561099e5761099d6124e8565b5b02179055507f0abf3b3f643594d958297062a019458e27d7766629590ac621aa1000fa1298ab336040516109d291906126ea565b60405180910390a15050565b600060149054906101000a900460ff1681565b81600380811115610a0557610a046124e8565b5b600160008373ffffffffffffffffffffffffffffffffffffffff1673ffffffffffffffffffffffffffffffffffffffff16815260200190815260200160002060030160003373ffffffffffffffffffffffffffffffffffffffff1673ffffffffffffffffffffffffffffffffffffffff16815260200190815260200160002060000160009054906101000a900460ff166003811115610aa757610aa66124e8565b5b1480610b40575060011515600260008373ffffffffffffffffffffffffffffffffffffffff1673ffffffffffffffffffffffffffffffffffffffff16815260200190815260200160002060003373ffffffffffffffffffffffffffffffffffffffff1673ffffffffffffffffffffffffffffffffffffffff16815260200190815260200160002060009054906101000a900460ff161515145b80610b7d5750610b4e61123d565b73ffffffffffffffffffffffffffffffffffffffff163373ffffffffffffffffffffffffffffffffffffffff16145b610bbc576040517f08c379a0000000000000000000000000000000000000000000000000000000008152600401610bb390612805565b60405180910390fd5b6003600160008573ffffffffffffffffffffffffffffffffffffffff1673ffffffffffffffffffffffffffffffffffffffff16815260200190815260200160002060030160008473ffffffffffffffffffffffffffffffffffffffff1673ffffffffffffffffffffffffffffffffffffffff16815260200190815260200160002060000160006101000a81548160ff02191690836003811115610c6257610c616124e8565b5b02179055507f69d02d7fd90d09588f2ba0ea3c2ba06a591eda1b091ed67790e2b36fb339ac538233604051610c989291906128fd565b60405180910390a1505050565b610cad6123ec565b600160008473ffffffffffffffffffffffffffffffffffffffff1673ffffffffffffffffffffffffffffffffffffffff16815260200190815260200160002060030160008373ffffffffffffffffffffffffffffffffffffffff1673ffffffffffffffffffffffffffffffffffffffff1681526020019081526020016000206040518060400160405290816000820160009054906101000a900460ff166003811115610d5c57610d5b6124e8565b5b6003811115610d6e57610d6d6124e8565b5b8152602001600182015481525050905092915050565b80600380811115610d9857610d976124e8565b5b600160008373ffffffffffffffffffffffffffffffffffffffff1673ffffffffffffffffffffffffffffffffffffffff16815260200190815260200160002060030160003373ffffffffffffffffffffffffffffffffffffffff1673ffffffffffffffffffffffffffffffffffffffff16815260200190815260200160002060000160009054906101000a900460ff166003811115610e3a57610e396124e8565b5b1415610e7b576040517f08c379a0000000000000000000000000000000000000000000000000000000008152600401610e7290612805565b60405180910390fd5b6002600160008473ffffffffffffffffffffffffffffffffffffffff1673ffffffffffffffffffffffffffffffffffffffff16815260200190815260200160002060030160003373ffffffffffffffffffffffffffffffffffffffff1673ffffffffffffffffffffffffffffffffffffffff16815260200190815260200160002060000160006101000a81548160ff02191690836003811115610f2157610f206124e8565b5b021790555033600160008473ffffffffffffffffffffffffffffffffffffffff1673ffffffffffffffffffffffffffffffffffffffff1681526020019081526020016000206002016000600160008673ffffffffffffffffffffffffffffffffffffffff1673ffffffffffffffffffffffffffffffffffffffff16815260200190815260200160002060010154815260200190815260200160002060006101000a81548173ffffffffffffffffffffffffffffffffffffffff021916908373ffffffffffffffffffffffffffffffffffffffff16021790555042600160008473ffffffffffffffffffffffffffffffffffffffff1673ffffffffffffffffffffffffffffffffffffffff16815260200190815260200160002060030160003373ffffffffffffffffffffffffffffffffffffffff1673ffffffffffffffffffffffffffffffffffffffff16815260200190815260200160002060010181905550600160008373ffffffffffffffffffffffffffffffffffffffff1673ffffffffffffffffffffffffffffffffffffffff168152602001908152602001600020600101600081546110d090612955565b919050819055507fbed19f5b65ad42d891f94ee997a95c1c635d47af67169b52c2b2f0f823b7cd713360405161110691906126ea565b60405180910390a15050565b604051602001611121906129ea565b6040516020818303038152906040528051906020012081565b611142612320565b73ffffffffffffffffffffffffffffffffffffffff1661116061123d565b73ffffffffffffffffffffffffffffffffffffffff16146111b6576040517f08c379a00000000000000000000000000000000000000000000000000000000081526004016111ad90612a56565b60405180910390fd5b6111c06000612328565b565b6000600160008373ffffffffffffffffffffffffffffffffffffffff1673ffffffffffffffffffffffffffffffffffffffff168152602001908152602001600020600101549050919050565b60026020528160005260406000206020528060005260406000206000915091509054906101000a900460ff1681565b60008060009054906101000a900473ffffffffffffffffffffffffffffffffffffffff16905090565b600060038081111561127b5761127a6124e8565b5b600160008573ffffffffffffffffffffffffffffffffffffffff1673ffffffffffffffffffffffffffffffffffffffff16815260200190815260200160002060030160008473ffffffffffffffffffffffffffffffffffffffff1673ffffffffffffffffffffffffffffffffffffffff16815260200190815260200160002060000160009054906101000a900460ff16600381111561131d5761131c6124e8565b5b14905092915050565b6000600160008473ffffffffffffffffffffffffffffffffffffffff1673ffffffffffffffffffffffffffffffffffffffff168152602001908152602001600020600201600083815260200190815260200160002060009054906101000a900473ffffffffffffffffffffffffffffffffffffffff16905092915050565b816003808111156113b8576113b76124e8565b5b600160008373ffffffffffffffffffffffffffffffffffffffff1673ffffffffffffffffffffffffffffffffffffffff16815260200190815260200160002060030160003373ffffffffffffffffffffffffffffffffffffffff1673ffffffffffffffffffffffffffffffffffffffff16815260200190815260200160002060000160009054906101000a900460ff16600381111561145a576114596124e8565b5b14806114f3575060011515600260008373ffffffffffffffffffffffffffffffffffffffff1673ffffffffffffffffffffffffffffffffffffffff16815260200190815260200160002060003373ffffffffffffffffffffffffffffffffffffffff1673ffffffffffffffffffffffffffffffffffffffff16815260200190815260200160002060009054906101000a900460ff161515145b80611530575061150161123d565b73ffffffffffffffffffffffffffffffffffffffff163373ffffffffffffffffffffffffffffffffffffffff16145b61156f576040517f08c379a000000000000000000000000000000000000000000000000000000000815260040161156690612805565b60405180910390fd5b60006003811115611583576115826124e8565b5b600160008573ffffffffffffffffffffffffffffffffffffffff1673ffffffffffffffffffffffffffffffffffffffff16815260200190815260200160002060030160008473ffffffffffffffffffffffffffffffffffffffff1673ffffffffffffffffffffffffffffffffffffffff16815260200190815260200160002060000160009054906101000a900460ff166003811115611625576116246124e8565b5b14611665576040517f08c379a000000000000000000000000000000000000000000000000000000000815260040161165c90612ae8565b60405180910390fd5b6003600160008573ffffffffffffffffffffffffffffffffffffffff1673ffffffffffffffffffffffffffffffffffffffff16815260200190815260200160002060030160008473ffffffffffffffffffffffffffffffffffffffff1673ffffffffffffffffffffffffffffffffffffffff16815260200190815260200160002060000160006101000a81548160ff0219169083600381111561170b5761170a6124e8565b5b021790555081600160008573ffffffffffffffffffffffffffffffffffffffff1673ffffffffffffffffffffffffffffffffffffffff1681526020019081526020016000206002016000600160008773ffffffffffffffffffffffffffffffffffffffff1673ffffffffffffffffffffffffffffffffffffffff16815260200190815260200160002060010154815260200190815260200160002060006101000a81548173ffffffffffffffffffffffffffffffffffffffff021916908373ffffffffffffffffffffffffffffffffffffffff16021790555042600160008573ffffffffffffffffffffffffffffffffffffffff1673ffffffffffffffffffffffffffffffffffffffff16815260200190815260200160002060030160008473ffffffffffffffffffffffffffffffffffffffff1673ffffffffffffffffffffffffffffffffffffffff16815260200190815260200160002060010181905550600160008473ffffffffffffffffffffffffffffffffffffffff1673ffffffffffffffffffffffffffffffffffffffff168152602001908152602001600020600101600081546118ba90612955565b919050819055507f6a2af11b2d73f347f9d5840aea46899e17609730b5cd91bd9c312098038acba682336040516118f29291906128fd565b60405180910390a1505050565b60016020528060005260406000206000915090508060000160009054906101000a900473ffffffffffffffffffffffffffffffffffffffff16908060010154908060040160009054906101000a900460ff16905083565b8160038081111561196a576119696124e8565b5b600160008373ffffffffffffffffffffffffffffffffffffffff1673ffffffffffffffffffffffffffffffffffffffff16815260200190815260200160002060030160003373ffffffffffffffffffffffffffffffffffffffff1673ffffffffffffffffffffffffffffffffffffffff16815260200190815260200160002060000160009054906101000a900460ff166003811115611a0c57611a0b6124e8565b5b1480611aa5575060011515600260008373ffffffffffffffffffffffffffffffffffffffff1673ffffffffffffffffffffffffffffffffffffffff16815260200190815260200160002060003373ffffffffffffffffffffffffffffffffffffffff1673ffffffffffffffffffffffffffffffffffffffff16815260200190815260200160002060009054906101000a900460ff161515145b80611ae25750611ab361123d565b73ffffffffffffffffffffffffffffffffffffffff163373ffffffffffffffffffffffffffffffffffffffff16145b611b21576040517f08c379a0000000000000000000000000000000000000000000000000000000008152600401611b1890612805565b60405180910390fd5b60006003811115611b3557611b346124e8565b5b600160008573ffffffffffffffffffffffffffffffffffffffff1673ffffffffffffffffffffffffffffffffffffffff16815260200190815260200160002060030160008473ffffffffffffffffffffffffffffffffffffffff1673ffffffffffffffffffffffffffffffffffffffff16815260200190815260200160002060000160009054906101000a900460ff166003811115611bd757611bd66124e8565b5b14611c17576040517f08c379a0000000000000000000000000000000000000000000000000000000008152600401611c0e90612ae8565b60405180910390fd5b60018060008573ffffffffffffffffffffffffffffffffffffffff1673ffffffffffffffffffffffffffffffffffffffff16815260200190815260200160002060030160008473ffffffffffffffffffffffffffffffffffffffff1673ffffffffffffffffffffffffffffffffffffffff16815260200190815260200160002060000160006101000a81548160ff02191690836003811115611cbc57611cbb6124e8565b5b021790555081600160008573ffffffffffffffffffffffffffffffffffffffff1673ffffffffffffffffffffffffffffffffffffffff1681526020019081526020016000206002016000600160008773ffffffffffffffffffffffffffffffffffffffff1673ffffffffffffffffffffffffffffffffffffffff16815260200190815260200160002060010154815260200190815260200160002060006101000a81548173ffffffffffffffffffffffffffffffffffffffff021916908373ffffffffffffffffffffffffffffffffffffffff16021790555042600160008573ffffffffffffffffffffffffffffffffffffffff1673ffffffffffffffffffffffffffffffffffffffff16815260200190815260200160002060030160008473ffffffffffffffffffffffffffffffffffffffff1673ffffffffffffffffffffffffffffffffffffffff16815260200190815260200160002060010181905550600160008473ffffffffffffffffffffffffffffffffffffffff1673ffffffffffffffffffffffffffffffffffffffff16815260200190815260200160002060010160008154611e6b90612955565b919050819055507f6c246c8894ac239253d22cd508dbe8eb7e027e0589cdd4ff16dbb4238ccd98348233604051611ea39291906128fd565b60405180910390a1505050565b8160011515600260008373ffffffffffffffffffffffffffffffffffffffff1673ffffffffffffffffffffffffffffffffffffffff16815260200190815260200160002060003373ffffffffffffffffffffffffffffffffffffffff1673ffffffffffffffffffffffffffffffffffffffff16815260200190815260200160002060009054906101000a900460ff1615151480611f7f5750611f5061123d565b73ffffffffffffffffffffffffffffffffffffffff163373ffffffffffffffffffffffffffffffffffffffff16145b611fbe576040517f08c379a0000000000000000000000000000000000000000000000000000000008152600401611fb590612805565b60405180910390fd5b6001600260008573ffffffffffffffffffffffffffffffffffffffff1673ffffffffffffffffffffffffffffffffffffffff16815260200190815260200160002060008473ffffffffffffffffffffffffffffffffffffffff1673ffffffffffffffffffffffffffffffffffffffff16815260200190815260200160002060006101000a81548160ff021916908315150217905550505050565b8160011515600260008373ffffffffffffffffffffffffffffffffffffffff1673ffffffffffffffffffffffffffffffffffffffff16815260200190815260200160002060003373ffffffffffffffffffffffffffffffffffffffff1673ffffffffffffffffffffffffffffffffffffffff16815260200190815260200160002060009054906101000a900460ff161515148061212757506120f861123d565b73ffffffffffffffffffffffffffffffffffffffff163373ffffffffffffffffffffffffffffffffffffffff16145b612166576040517f08c379a000000000000000000000000000000000000000000000000000000000815260040161215d90612805565b60405180910390fd5b6000600260008573ffffffffffffffffffffffffffffffffffffffff1673ffffffffffffffffffffffffffffffffffffffff16815260200190815260200160002060008473ffffffffffffffffffffffffffffffffffffffff1673ffffffffffffffffffffffffffffffffffffffff16815260200190815260200160002060006101000a81548160ff021916908315150217905550505050565b60405160200161220f90612b54565b6040516020818303038152906040528051906020012081565b612230612320565b73ffffffffffffffffffffffffffffffffffffffff1661224e61123d565b73ffffffffffffffffffffffffffffffffffffffff16146122a4576040517f08c379a000000000000000000000000000000000000000000000000000000000815260040161229b90612a56565b60405180910390fd5b600073ffffffffffffffffffffffffffffffffffffffff168173ffffffffffffffffffffffffffffffffffffffff161415612314576040517f08c379a000000000000000000000000000000000000000000000000000000000815260040161230b90612be6565b60405180910390fd5b61231d81612328565b50565b600033905090565b60008060009054906101000a900473ffffffffffffffffffffffffffffffffffffffff169050816000806101000a81548173ffffffffffffffffffffffffffffffffffffffff021916908373ffffffffffffffffffffffffffffffffffffffff1602179055508173ffffffffffffffffffffffffffffffffffffffff168173ffffffffffffffffffffffffffffffffffffffff167f8be0079c531659141344cd1fd0a4f28419497f9722a3daafe3b4186f6b6457e060405160405180910390a35050565b60405180604001604052806000600381111561240b5761240a6124e8565b5b8152602001600081525090565b600080fd5b600073ffffffffffffffffffffffffffffffffffffffff82169050919050565b60006124488261241d565b9050919050565b6124588161243d565b811461246357600080fd5b50565b6000813590506124758161244f565b92915050565b6000806040838503121561249257612491612418565b5b60006124a085828601612466565b92505060206124b185828601612466565b9150509250929050565b6000602082840312156124d1576124d0612418565b5b60006124df84828501612466565b91505092915050565b7f4e487b7100000000000000000000000000000000000000000000000000000000600052602160045260246000fd5b60028110612528576125276124e8565b5b50565b600081905061253982612517565b919050565b60006125498261252b565b9050919050565b6125598161253e565b82525050565b60006020820190506125746000830184612550565b92915050565b6004811061258b5761258a6124e8565b5b50565b600081905061259c8261257a565b919050565b60006125ac8261258e565b9050919050565b6125bc816125a1565b82525050565b6000819050919050565b6125d5816125c2565b82525050565b6040820160008201516125f160008501826125b3565b50602082015161260460208501826125cc565b50505050565b600060408201905061261f60008301846125db565b92915050565b60007fffffffffffffffff00000000000000000000000000000000000000000000000082169050919050565b61265a81612625565b82525050565b60006020820190506126756000830184612651565b92915050565b612684816125c2565b82525050565b600060208201905061269f600083018461267b565b92915050565b60008115159050919050565b6126ba816126a5565b82525050565b60006020820190506126d560008301846126b1565b92915050565b6126e48161243d565b82525050565b60006020820190506126ff60008301846126db565b92915050565b61270e816125c2565b811461271957600080fd5b50565b60008135905061272b81612705565b92915050565b6000806040838503121561274857612747612418565b5b600061275685828601612466565b92505060206127678582860161271c565b9150509250929050565b600060608201905061278660008301866126db565b612793602083018561267b565b6127a060408301846126b1565b949350505050565b600082825260208201905092915050565b7f4e6f7420617574686f72697a6564000000000000000000000000000000000000600082015250565b60006127ef600e836127a8565b91506127fa826127b9565b602082019050919050565b6000602082019050818103600083015261281e816127e2565b9050919050565b7f44616f20616c7265616479206164646564000000000000000000000000000000600082015250565b600061285b6011836127a8565b915061286682612825565b602082019050919050565b6000602082019050818103600083015261288a8161284e565b9050919050565b7f496d706f737369626c6520746f206a6f696e0000000000000000000000000000600082015250565b60006128c76012836127a8565b91506128d282612891565b602082019050919050565b600060208201905081810360008301526128f6816128ba565b9050919050565b600060408201905061291260008301856126db565b61291f60208301846126db565b9392505050565b7f4e487b7100000000000000000000000000000000000000000000000000000000600052601160045260246000fd5b6000612960826125c2565b91507fffffffffffffffffffffffffffffffffffffffffffffffffffffffffffffffff82141561299357612992612926565b5b600182019050919050565b7f4d656d6265724d6f64756c650000000000000000000000000000000000000000600082015250565b60006129d4600c836127a8565b91506129df8261299e565b602082019050919050565b60006020820190508181036000830152612a03816129c7565b9050919050565b7f4f776e61626c653a2063616c6c6572206973206e6f7420746865206f776e6572600082015250565b6000612a406020836127a8565b9150612a4b82612a0a565b602082019050919050565b60006020820190508181036000830152612a6f81612a33565b9050919050565b7f496e76616c6964204d656d6265723a206d757374206265206e6f742061206d6560008201527f6d62657200000000000000000000000000000000000000000000000000000000602082015250565b6000612ad26024836127a8565b9150612add82612a76565b604082019050919050565b60006020820190508181036000830152612b0181612ac5565b9050919050565b7f496e766974654d656d626572736869704d6f64756c6500000000000000000000600082015250565b6000612b3e6016836127a8565b9150612b4982612b08565b602082019050919050565b60006020820190508181036000830152612b6d81612b31565b9050919050565b7f4f776e61626c653a206e6577206f776e657220697320746865207a65726f206160008201527f6464726573730000000000000000000000000000000000000000000000000000602082015250565b6000612bd06026836127a8565b9150612bdb82612b74565b604082019050919050565b60006020820190508181036000830152612bff81612bc3565b905091905056fea2646970667358221220dd7e241bd938f980a177f7622db6880e282b4d20846c06bc62d5c1f885dcc24464736f6c63430008090033",
  "immutableReferences": {},
  "source": "// SPDX-License-Identifier: MIT\npragma solidity ^0.8.9;\n\nimport \"@openzeppelin/contracts/utils/math/SafeMath.sol\";\nimport \"@openzeppelin/contracts/access/Ownable.sol\";\nimport \"../../Data.sol\";\nimport \"../../DaoBase.sol\";\n\n\n/**\n* @title InviteMembershipModule\n* @author chixx.eth & mourad\n* @notice module membership \n*/\ncontract InviteMembershipModule is Ownable {\n    using SafeMath for uint256;\n\n    /// @notice store the module code hash\n    bytes8 public constant moduleCode = bytes8(keccak256(abi.encode(\"InviteMembershipModule\")));\n\n    /// @notice store the module type hash\n    bytes8 public constant moduleType = bytes8(keccak256(abi.encode(\"MemberModule\")));\n\n    /// @notice visibility of the members in MY-DAO\n    Data.visibilityEnum public visibility;\n\n    /**\n    * @notice store daos info\n    * @dev param address is address of the daoBase. return daoMember struct\n    */\n    mapping(address => Data.DaoMember) public daos;\n\n    /**\n    * @notice store daos info\n    * @dev param address is address of the daoBase. return daoMember struct\n    */\n    mapping(address => mapping(address => bool)) public authorizedAddress;\n\n    event MemberAdded(address newMember, address adderAddress);\n    event MemberAccepted(address newMember, address acceptorAddress);\n    event MemberInvited(address memberInvited, address memberInvitor);\n    event MemberJoined(address memberJoined);\n    event MemberAskedJoin(address memberRequestor);\n\n    /**\n    * @notice constructor change the owner to be the DaosFactory\n    * @dev param 0 address of the DaosFactory\n    */\n    constructor(address _contractFactory) {\n        _transferOwnership(_contractFactory);\n    }\n\n    /**\n    * @notice check msg.sender is member or authorized\n    * @dev param 0 address of the DaosFactory\n    */\n    modifier onlyActiveMembersOrAuthorizeAddress(address _contractDao) {\n        require(daos[_contractDao].members[msg.sender].status == Data.memberStatus.active\n        || authorizedAddress[_contractDao][msg.sender] == true\n        || msg.sender == owner(), \"Not authorized\");\n        _;\n    }\n\n    /**\n    * @notice check msg.sender is not a member\n    * @dev param 0 address of the DaosFactory\n    */\n    modifier onlyNotActiveMembers(address _contractDao) {\n        require(daos[_contractDao].members[msg.sender].status != Data.memberStatus.active, \"Not authorized\");\n        _;\n    }\n\n    /**\n    * @notice check msg.sender is authorized\n    * @dev param 0 address of the DaosFactory\n    */\n    modifier onlyAuthorizeAddress(address _contractDao) {\n        require(authorizedAddress[_contractDao][msg.sender] == true, \"Not authorized\");\n        _;\n    }\n\n    /**\n    * @notice check msg.sender is authorized or the owner\n    * @dev param 0 address of the DaosFactory\n    */\n    modifier onlyAuthorizeAddressOrOwner(address _contractDao) {\n        require(authorizedAddress[_contractDao][msg.sender] == true || msg.sender == owner(), \"Not authorized\");\n        _;\n    }\n\n    /**\n    * @notice get info of a member in a dao\n    * @param _contractDao address of the dao\n    * @param _member address of the member\n    * @return member struct taht store info of the member see ../../Data.sol\n    */\n    function getMemberInfo(address _contractDao, address _member) external view returns(Data.member memory) {\n        return(daos[_contractDao].members[_member]);\n    }\n\n    /**\n    * @notice get address of a member in a dao by his id\n    * @param _contractDao address of the dao\n    * @param _id id of the member\n    * @return member address of the member\n    */\n    function getAddrById(address _contractDao, uint256 _id) external view returns(address) {\n        return daos[_contractDao].memberAddresses[_id];\n    }\n\n    /**\n    * @notice get the total member of the dao\n    * @param _contractDao address of the dao\n    * @return count uint256 of the total member in the dao\n    */\n    function getMembersCount(address _contractDao) external view returns(uint256) {\n        return daos[_contractDao].membersCount;\n    }\n\n    /**\n    * @notice add member to the dao\n    * @dev only active member or authorized address can execute this function\n    * @param _contractDao address of the dao\n    * @param _addressMember address of the user that will be added\n    */\n    function addMember(address _contractDao, address _addressMember) public onlyActiveMembersOrAuthorizeAddress(_contractDao) {\n        require(daos[_contractDao].members[_addressMember].status == Data.memberStatus.notMember\n            , \"Invalid Member: must be not a member\");\n        daos[_contractDao].members[_addressMember].status = Data.memberStatus.active;\n        daos[_contractDao].memberAddresses[daos[_contractDao].membersCount] = _addressMember;\n        daos[_contractDao].members[_addressMember].joinTime = block.timestamp;\n        ++daos[_contractDao].membersCount;\n        emit MemberAdded(_addressMember, msg.sender);\n    }\n\n    /**\n    * @notice accept member to the dao\n    * @dev only active member or authorized address can execute this function\n    * @param _contractDao address of the dao\n    * @param _addressMember address of the user that will be accepted\n    */\n    function acceptMember(address _contractDao, address _addressMember) public onlyActiveMembersOrAuthorizeAddress(_contractDao) {\n        daos[_contractDao].members[_addressMember].status = Data.memberStatus.active;\n        emit MemberAccepted(_addressMember, msg.sender);\n    }\n\n    /**\n    * @notice invite member to the dao\n    * @dev only active member or authorized address can execute this function\n    * @param _contractDao address of the dao\n    * @param _addressMember address of the user that will be invited\n    */\n    function inviteMember(address _contractDao, address _addressMember) public onlyActiveMembersOrAuthorizeAddress(_contractDao) {\n        require(daos[_contractDao].members[_addressMember].status == Data.memberStatus.notMember\n            , \"Invalid Member: must be not a member\");\n        daos[_contractDao].members[_addressMember].status = Data.memberStatus.invited;\n        daos[_contractDao].memberAddresses[daos[_contractDao].membersCount] = _addressMember;\n        daos[_contractDao].members[_addressMember].joinTime = block.timestamp;\n        ++daos[_contractDao].membersCount;\n        emit MemberInvited(_addressMember, msg.sender);\n    }\n\n    /**\n    * @notice request to be a member of the dao\n    * @dev only not active member can execute this function\n    * @param _contractDao address of the dao\n    */\n    function requestJoin(address _contractDao) public onlyNotActiveMembers(_contractDao) {\n        daos[_contractDao].members[msg.sender].status = Data.memberStatus.asking;\n        daos[_contractDao].memberAddresses[daos[_contractDao].membersCount] = msg.sender;\n        daos[_contractDao].members[msg.sender].joinTime = block.timestamp;\n        ++daos[_contractDao].membersCount;\n        emit MemberAskedJoin(msg.sender);\n    }\n\n    /**\n    * @notice return if a address is member of a dao\n    * @param _contractDao address of the dao\n    * @param _addressMember address of the user to check\n    * @return bool true or false if is active\n    */\n    function isActiveMember(address _contractDao, address _addressMember) public view returns (bool){\n        return daos[_contractDao].members[_addressMember].status == Data.memberStatus.active;\n    }\n\n    /**\n    * @notice join a dao\n    * @dev only not active member can execute this function\n    * @param _contractDao address of the dao\n    */\n    function join(address _contractDao) public onlyNotActiveMembers(_contractDao) {\n        require((daos[_contractDao].members[msg.sender].status == Data.memberStatus.invited)\n                , \"Impossible to join\");\n        daos[_contractDao].members[msg.sender].status = Data.memberStatus.active;\n        emit MemberJoined(msg.sender);\n    }\n\n    /**\n    * @notice link a dao to SimpleDonationsModule\n    * @param _contractDao address of the dao\n    * @param _memberDao address of the user of the dao in this case the owner of the dao\n    */\n    function addDao(address _contractDao, address _memberDao) external onlyAuthorizeAddressOrOwner(_contractDao) {\n        require(!daos[_contractDao].isActive, \"Dao already added\");\n        daos[_contractDao].isActive = true;\n        daos[_contractDao].addressDao = _contractDao;\n        addMember(_contractDao, _memberDao);\n        authorizedAddress[_contractDao][_memberDao] = true;\n    }\n\n    /**\n    * @notice authorize a new address\n    * @param _contractDao address of the dao\n    * @param _contractAddress address that will be authorized\n    */\n    function authorizeAddress(address _contractDao, address _contractAddress) external onlyAuthorizeAddressOrOwner(_contractDao) {\n        authorizedAddress[_contractDao][_contractAddress] = true;\n    }\n\n    /**\n    * @notice deny a authorized address\n    * @param _contractDao address of the dao\n    * @param _contractAddress address that will be deny\n    */\n    function denyAddress(address _contractDao, address _contractAddress) external onlyAuthorizeAddressOrOwner(_contractDao) {\n        authorizedAddress[_contractDao][_contractAddress] = false;\n    }\n}",
  "sourcePath": "/Users/wasim/Documents/GitHub/VotingDAO/DAOFactory/DAOFactory/contracts/Modules/Implementations/InviteMembershipModule.sol",
  "compiler": {
    "name": "solc",
    "version": "0.8.9+commit.e5eed63a.Emscripten.clang"
  },
  "schemaVersion": "3.4.15",
  "updatedAt": "2023-08-31T18:03:06.039Z",
  "devdoc": {
    "author": "chixx.eth & mourad",
    "kind": "dev",
    "methods": {
      "acceptMember(address,address)": {
        "details": "only active member or authorized address can execute this function",
        "params": {
          "_addressMember": "address of the user that will be accepted",
          "_contractDao": "address of the dao"
        }
      },
      "addDao(address,address)": {
        "params": {
          "_contractDao": "address of the dao",
          "_memberDao": "address of the user of the dao in this case the owner of the dao"
        }
      },
      "addMember(address,address)": {
        "details": "only active member or authorized address can execute this function",
        "params": {
          "_addressMember": "address of the user that will be added",
          "_contractDao": "address of the dao"
        }
      },
      "authorizeAddress(address,address)": {
        "params": {
          "_contractAddress": "address that will be authorized",
          "_contractDao": "address of the dao"
        }
      },
      "constructor": {
        "details": "param 0 address of the DaosFactory"
      },
      "denyAddress(address,address)": {
        "params": {
          "_contractAddress": "address that will be deny",
          "_contractDao": "address of the dao"
        }
      },
      "getAddrById(address,uint256)": {
        "params": {
          "_contractDao": "address of the dao",
          "_id": "id of the member"
        },
        "returns": {
          "_0": "member address of the member"
        }
      },
      "getMemberInfo(address,address)": {
        "params": {
          "_contractDao": "address of the dao",
          "_member": "address of the member"
        },
        "returns": {
          "_0": "member struct taht store info of the member see ../../Data.sol"
        }
      },
      "getMembersCount(address)": {
        "params": {
          "_contractDao": "address of the dao"
        },
        "returns": {
          "_0": "count uint256 of the total member in the dao"
        }
      },
      "inviteMember(address,address)": {
        "details": "only active member or authorized address can execute this function",
        "params": {
          "_addressMember": "address of the user that will be invited",
          "_contractDao": "address of the dao"
        }
      },
      "isActiveMember(address,address)": {
        "params": {
          "_addressMember": "address of the user to check",
          "_contractDao": "address of the dao"
        },
        "returns": {
          "_0": "bool true or false if is active"
        }
      },
      "join(address)": {
        "details": "only not active member can execute this function",
        "params": {
          "_contractDao": "address of the dao"
        }
      },
      "owner()": {
        "details": "Returns the address of the current owner."
      },
      "renounceOwnership()": {
        "details": "Leaves the contract without owner. It will not be possible to call `onlyOwner` functions anymore. Can only be called by the current owner. NOTE: Renouncing ownership will leave the contract without an owner, thereby removing any functionality that is only available to the owner."
      },
      "requestJoin(address)": {
        "details": "only not active member can execute this function",
        "params": {
          "_contractDao": "address of the dao"
        }
      },
      "transferOwnership(address)": {
        "details": "Transfers ownership of the contract to a new account (`newOwner`). Can only be called by the current owner."
      }
    },
    "stateVariables": {
      "authorizedAddress": {
        "details": "param address is address of the daoBase. return daoMember struct"
      },
      "daos": {
        "details": "param address is address of the daoBase. return daoMember struct"
      }
    },
    "title": "InviteMembershipModule",
    "version": 1
  },
  "userdoc": {
    "kind": "user",
    "methods": {
      "acceptMember(address,address)": {
        "notice": "accept member to the dao"
      },
      "addDao(address,address)": {
        "notice": "link a dao to SimpleDonationsModule"
      },
      "addMember(address,address)": {
        "notice": "add member to the dao"
      },
      "authorizeAddress(address,address)": {
        "notice": "authorize a new address"
      },
      "authorizedAddress(address,address)": {
        "notice": "store daos info"
      },
      "constructor": {
        "notice": "constructor change the owner to be the DaosFactory"
      },
      "daos(address)": {
        "notice": "store daos info"
      },
      "denyAddress(address,address)": {
        "notice": "deny a authorized address"
      },
      "getAddrById(address,uint256)": {
        "notice": "get address of a member in a dao by his id"
      },
      "getMemberInfo(address,address)": {
        "notice": "get info of a member in a dao"
      },
      "getMembersCount(address)": {
        "notice": "get the total member of the dao"
      },
      "inviteMember(address,address)": {
        "notice": "invite member to the dao"
      },
      "isActiveMember(address,address)": {
        "notice": "return if a address is member of a dao"
      },
      "join(address)": {
        "notice": "join a dao"
      },
      "moduleCode()": {
        "notice": "store the module code hash"
      },
      "moduleType()": {
        "notice": "store the module type hash"
      },
      "requestJoin(address)": {
        "notice": "request to be a member of the dao"
      },
      "visibility()": {
        "notice": "visibility of the members in MY-DAO"
      }
    },
    "notice": "module membership ",
    "version": 1
  }
}