{
  "contractName": "OpenMembershipModule",
  "abi": [
    {
      "inputs": [
        {
          "internalType": "address",
          "name": "_contractFactory",
          "type": "address"
        }
      ],
      "stateMutability": "nonpayable",
      "type": "constructor"
    },
    {
      "anonymous": false,
      "inputs": [
        {
          "indexed": false,
          "internalType": "address",
          "name": "newMember",
          "type": "address"
        },
        {
          "indexed": false,
          "internalType": "address",
          "name": "acceptorAddress",
          "type": "address"
        }
      ],
      "name": "MemberAccepted",
      "type": "event"
    },
    {
      "anonymous": false,
      "inputs": [
        {
          "indexed": false,
          "internalType": "address",
          "name": "newMember",
          "type": "address"
        },
        {
          "indexed": false,
          "internalType": "address",
          "name": "adderAddress",
          "type": "address"
        }
      ],
      "name": "MemberAdded",
      "type": "event"
    },
    {
      "anonymous": false,
      "inputs": [
        {
          "indexed": false,
          "internalType": "address",
          "name": "memberRequestor",
          "type": "address"
        }
      ],
      "name": "MemberAskedJoin",
      "type": "event"
    },
    {
      "anonymous": false,
      "inputs": [
        {
          "indexed": false,
          "internalType": "address",
          "name": "memberInvited",
          "type": "address"
        },
        {
          "indexed": false,
          "internalType": "address",
          "name": "memberInvitor",
          "type": "address"
        }
      ],
      "name": "MemberInvited",
      "type": "event"
    },
    {
      "anonymous": false,
      "inputs": [
        {
          "indexed": false,
          "internalType": "address",
          "name": "memberJoined",
          "type": "address"
        }
      ],
      "name": "MemberJoined",
      "type": "event"
    },
    {
      "anonymous": false,
      "inputs": [
        {
          "indexed": true,
          "internalType": "address",
          "name": "previousOwner",
          "type": "address"
        },
        {
          "indexed": true,
          "internalType": "address",
          "name": "newOwner",
          "type": "address"
        }
      ],
      "name": "OwnershipTransferred",
      "type": "event"
    },
    {
      "inputs": [
        {
          "internalType": "address",
          "name": "",
          "type": "address"
        },
        {
          "internalType": "address",
          "name": "",
          "type": "address"
        }
      ],
      "name": "authorizedAddress",
      "outputs": [
        {
          "internalType": "bool",
          "name": "",
          "type": "bool"
        }
      ],
      "stateMutability": "view",
      "type": "function"
    },
    {
      "inputs": [
        {
          "internalType": "address",
          "name": "",
          "type": "address"
        }
      ],
      "name": "daos",
      "outputs": [
        {
          "internalType": "address",
          "name": "addressDao",
          "type": "address"
        },
        {
          "internalType": "uint256",
          "name": "membersCount",
          "type": "uint256"
        },
        {
          "internalType": "bool",
          "name": "isActive",
          "type": "bool"
        }
      ],
      "stateMutability": "view",
      "type": "function"
    },
    {
      "inputs": [],
      "name": "moduleCode",
      "outputs": [
        {
          "internalType": "bytes8",
          "name": "",
          "type": "bytes8"
        }
      ],
      "stateMutability": "view",
      "type": "function"
    },
    {
      "inputs": [],
      "name": "moduleType",
      "outputs": [
        {
          "internalType": "bytes8",
          "name": "",
          "type": "bytes8"
        }
      ],
      "stateMutability": "view",
      "type": "function"
    },
    {
      "inputs": [],
      "name": "owner",
      "outputs": [
        {
          "internalType": "address",
          "name": "",
          "type": "address"
        }
      ],
      "stateMutability": "view",
      "type": "function"
    },
    {
      "inputs": [],
      "name": "renounceOwnership",
      "outputs": [],
      "stateMutability": "nonpayable",
      "type": "function"
    },
    {
      "inputs": [
        {
          "internalType": "address",
          "name": "newOwner",
          "type": "address"
        }
      ],
      "name": "transferOwnership",
      "outputs": [],
      "stateMutability": "nonpayable",
      "type": "function"
    },
    {
      "inputs": [],
      "name": "visibility",
      "outputs": [
        {
          "internalType": "enum Data.visibilityEnum",
          "name": "",
          "type": "uint8"
        }
      ],
      "stateMutability": "view",
      "type": "function"
    },
    {
      "inputs": [
        {
          "internalType": "address",
          "name": "_contractDao",
          "type": "address"
        },
        {
          "internalType": "address",
          "name": "_member",
          "type": "address"
        }
      ],
      "name": "getMemberInfo",
      "outputs": [
        {
          "components": [
            {
              "internalType": "enum Data.memberStatus",
              "name": "status",
              "type": "uint8"
            },
            {
              "internalType": "uint256",
              "name": "joinTime",
              "type": "uint256"
            }
          ],
          "internalType": "struct Data.member",
          "name": "",
          "type": "tuple"
        }
      ],
      "stateMutability": "view",
      "type": "function"
    },
    {
      "inputs": [
        {
          "internalType": "address",
          "name": "_contractDao",
          "type": "address"
        },
        {
          "internalType": "uint256",
          "name": "_id",
          "type": "uint256"
        }
      ],
      "name": "getAddrById",
      "outputs": [
        {
          "internalType": "address",
          "name": "",
          "type": "address"
        }
      ],
      "stateMutability": "view",
      "type": "function"
    },
    {
      "inputs": [
        {
          "internalType": "address",
          "name": "_contractDao",
          "type": "address"
        }
      ],
      "name": "getMembersCount",
      "outputs": [
        {
          "internalType": "uint256",
          "name": "",
          "type": "uint256"
        }
      ],
      "stateMutability": "view",
      "type": "function"
    },
    {
      "inputs": [
        {
          "internalType": "address",
          "name": "_contractDao",
          "type": "address"
        },
        {
          "internalType": "address",
          "name": "_addressMember",
          "type": "address"
        }
      ],
      "name": "addMember",
      "outputs": [],
      "stateMutability": "nonpayable",
      "type": "function"
    },
    {
      "inputs": [
        {
          "internalType": "address",
          "name": "_contractDao",
          "type": "address"
        },
        {
          "internalType": "address",
          "name": "_addressMember",
          "type": "address"
        }
      ],
      "name": "isActiveMember",
      "outputs": [
        {
          "internalType": "bool",
          "name": "",
          "type": "bool"
        }
      ],
      "stateMutability": "view",
      "type": "function"
    },
    {
      "inputs": [
        {
          "internalType": "address",
          "name": "_contractDao",
          "type": "address"
        }
      ],
      "name": "join",
      "outputs": [],
      "stateMutability": "nonpayable",
      "type": "function"
    },
    {
      "inputs": [
        {
          "internalType": "address",
          "name": "_contractDao",
          "type": "address"
        },
        {
          "internalType": "address",
          "name": "_memberDao",
          "type": "address"
        }
      ],
      "name": "addDao",
      "outputs": [],
      "stateMutability": "nonpayable",
      "type": "function"
    },
    {
      "inputs": [
        {
          "internalType": "address",
          "name": "_contractDao",
          "type": "address"
        },
        {
          "internalType": "address",
          "name": "_contractAddress",
          "type": "address"
        }
      ],
      "name": "authorizeAddress",
      "outputs": [],
      "stateMutability": "nonpayable",
      "type": "function"
    },
    {
      "inputs": [
        {
          "internalType": "address",
          "name": "_contractDao",
          "type": "address"
        },
        {
          "internalType": "address",
          "name": "_contractAddress",
          "type": "address"
        }
      ],
      "name": "denyAddress",
      "outputs": [],
      "stateMutability": "nonpayable",
      "type": "function"
    }
  ],
  "bytecode": "0x60806040523480156200001157600080fd5b5060405162002256380380620022568339818101604052810190620000379190620001c0565b62000069620000546200008a640100000000026401000000009004565b62000092640100000000026401000000009004565b620000838162000092640100000000026401000000009004565b50620001f2565b600033905090565b60008060009054906101000a900473ffffffffffffffffffffffffffffffffffffffff169050816000806101000a81548173ffffffffffffffffffffffffffffffffffffffff021916908373ffffffffffffffffffffffffffffffffffffffff1602179055508173ffffffffffffffffffffffffffffffffffffffff168173ffffffffffffffffffffffffffffffffffffffff167f8be0079c531659141344cd1fd0a4f28419497f9722a3daafe3b4186f6b6457e060405160405180910390a35050565b600080fd5b600073ffffffffffffffffffffffffffffffffffffffff82169050919050565b600062000188826200015b565b9050919050565b6200019a816200017b565b8114620001a657600080fd5b50565b600081519050620001ba816200018f565b92915050565b600060208284031215620001d957620001d862000156565b5b6000620001e984828501620001a9565b91505092915050565b61205480620002026000396000f3fe608060405234801561001057600080fd5b5060043610610128576000357c0100000000000000000000000000000000000000000000000000000000900480638da5cb5b116100bf578063c25f3cf61161008e578063c25f3cf6146102d5578063db4d7dcd14610307578063e498116f14610323578063f0744c161461033f578063f2fde38b1461035d57610128565b80638da5cb5b1461023b5780638ecf772014610259578063945da9a1146102895780639d58b15d146102b957610128565b80636465e69f116100fb5780636465e69f146101b3578063715018a6146101d1578063760b9c34146101db578063890222b61461020b57610128565b806312ee7e411461012d57806328ffe6c81461014957806329adec141461016557806336048d5f14610183575b600080fd5b61014760048036038101906101429190611925565b610379565b005b610163600480360381019061015e9190611965565b610696565b005b61016d610b1a565b60405161017a9190611a09565b60405180910390f35b61019d60048036038101906101989190611925565b610b2d565b6040516101aa9190611ab4565b60405180910390f35b6101bb610c0c565b6040516101c89190611b0a565b60405180910390f35b6101d9610c34565b005b6101f560048036038101906101f09190611965565b610cbc565b6040516102029190611b34565b60405180910390f35b61022560048036038101906102209190611925565b610d08565b6040516102329190611b6a565b60405180910390f35b610243610d37565b6040516102509190611b94565b60405180910390f35b610273600480360381019061026e9190611925565b610d60565b6040516102809190611b6a565b60405180910390f35b6102a3600480360381019061029e9190611bdb565b610e20565b6040516102b09190611b94565b60405180910390f35b6102d360048036038101906102ce9190611925565b610e9e565b005b6102ef60048036038101906102ea9190611965565b611303565b6040516102fe93929190611c1b565b60405180910390f35b610321600480360381019061031c9190611925565b61135a565b005b61033d60048036038101906103389190611925565b611502565b005b6103476116aa565b6040516103549190611b0a565b60405180910390f35b61037760048036038101906103729190611965565b6116d2565b005b8160011515600260008373ffffffffffffffffffffffffffffffffffffffff1673ffffffffffffffffffffffffffffffffffffffff16815260200190815260200160002060003373ffffffffffffffffffffffffffffffffffffffff1673ffffffffffffffffffffffffffffffffffffffff16815260200190815260200160002060009054906101000a900460ff16151514806104485750610419610d37565b73ffffffffffffffffffffffffffffffffffffffff163373ffffffffffffffffffffffffffffffffffffffff16145b610487576040517f08c379a000000000000000000000000000000000000000000000000000000000815260040161047e90611caf565b60405180910390fd5b600160008473ffffffffffffffffffffffffffffffffffffffff1673ffffffffffffffffffffffffffffffffffffffff16815260200190815260200160002060040160009054906101000a900460ff1615610517576040517f08c379a000000000000000000000000000000000000000000000000000000000815260040161050e90611d1b565b60405180910390fd5b60018060008573ffffffffffffffffffffffffffffffffffffffff1673ffffffffffffffffffffffffffffffffffffffff16815260200190815260200160002060040160006101000a81548160ff02191690831515021790555082600160008573ffffffffffffffffffffffffffffffffffffffff1673ffffffffffffffffffffffffffffffffffffffff16815260200190815260200160002060000160006101000a81548173ffffffffffffffffffffffffffffffffffffffff021916908373ffffffffffffffffffffffffffffffffffffffff1602179055506105fc8383610e9e565b6001600260008573ffffffffffffffffffffffffffffffffffffffff1673ffffffffffffffffffffffffffffffffffffffff16815260200190815260200160002060008473ffffffffffffffffffffffffffffffffffffffff1673ffffffffffffffffffffffffffffffffffffffff16815260200190815260200160002060006101000a81548160ff021916908315150217905550505050565b806003808111156106aa576106a9611992565b5b600160008373ffffffffffffffffffffffffffffffffffffffff1673ffffffffffffffffffffffffffffffffffffffff16815260200190815260200160002060030160003373ffffffffffffffffffffffffffffffffffffffff1673ffffffffffffffffffffffffffffffffffffffff16815260200190815260200160002060000160009054906101000a900460ff16600381111561074c5761074b611992565b5b141561078d576040517f08c379a000000000000000000000000000000000000000000000000000000000815260040161078490611caf565b60405180910390fd5b600060038111156107a1576107a0611992565b5b600160008473ffffffffffffffffffffffffffffffffffffffff1673ffffffffffffffffffffffffffffffffffffffff16815260200190815260200160002060030160003373ffffffffffffffffffffffffffffffffffffffff1673ffffffffffffffffffffffffffffffffffffffff16815260200190815260200160002060000160009054906101000a900460ff16600381111561084357610842611992565b5b14610883576040517f08c379a000000000000000000000000000000000000000000000000000000000815260040161087a90611d87565b60405180910390fd5b6003600160008473ffffffffffffffffffffffffffffffffffffffff1673ffffffffffffffffffffffffffffffffffffffff16815260200190815260200160002060030160003373ffffffffffffffffffffffffffffffffffffffff1673ffffffffffffffffffffffffffffffffffffffff16815260200190815260200160002060000160006101000a81548160ff0219169083600381111561092957610928611992565b5b021790555033600160008473ffffffffffffffffffffffffffffffffffffffff1673ffffffffffffffffffffffffffffffffffffffff1681526020019081526020016000206002016000600160008673ffffffffffffffffffffffffffffffffffffffff1673ffffffffffffffffffffffffffffffffffffffff16815260200190815260200160002060010154815260200190815260200160002060006101000a81548173ffffffffffffffffffffffffffffffffffffffff021916908373ffffffffffffffffffffffffffffffffffffffff16021790555042600160008473ffffffffffffffffffffffffffffffffffffffff1673ffffffffffffffffffffffffffffffffffffffff16815260200190815260200160002060030160003373ffffffffffffffffffffffffffffffffffffffff1673ffffffffffffffffffffffffffffffffffffffff16815260200190815260200160002060010181905550600160008373ffffffffffffffffffffffffffffffffffffffff1673ffffffffffffffffffffffffffffffffffffffff16815260200190815260200160002060010160008154610ad890611dd6565b919050819055507f0abf3b3f643594d958297062a019458e27d7766629590ac621aa1000fa1298ab33604051610b0e9190611b94565b60405180910390a15050565b600060149054906101000a900460ff1681565b610b35611896565b600160008473ffffffffffffffffffffffffffffffffffffffff1673ffffffffffffffffffffffffffffffffffffffff16815260200190815260200160002060030160008373ffffffffffffffffffffffffffffffffffffffff1673ffffffffffffffffffffffffffffffffffffffff1681526020019081526020016000206040518060400160405290816000820160009054906101000a900460ff166003811115610be457610be3611992565b5b6003811115610bf657610bf5611992565b5b8152602001600182015481525050905092915050565b604051602001610c1b90611e6b565b6040516020818303038152906040528051906020012081565b610c3c6117ca565b73ffffffffffffffffffffffffffffffffffffffff16610c5a610d37565b73ffffffffffffffffffffffffffffffffffffffff1614610cb0576040517f08c379a0000000000000000000000000000000000000000000000000000000008152600401610ca790611ed7565b60405180910390fd5b610cba60006117d2565b565b6000600160008373ffffffffffffffffffffffffffffffffffffffff1673ffffffffffffffffffffffffffffffffffffffff168152602001908152602001600020600101549050919050565b60026020528160005260406000206020528060005260406000206000915091509054906101000a900460ff1681565b60008060009054906101000a900473ffffffffffffffffffffffffffffffffffffffff16905090565b6000600380811115610d7557610d74611992565b5b600160008573ffffffffffffffffffffffffffffffffffffffff1673ffffffffffffffffffffffffffffffffffffffff16815260200190815260200160002060030160008473ffffffffffffffffffffffffffffffffffffffff1673ffffffffffffffffffffffffffffffffffffffff16815260200190815260200160002060000160009054906101000a900460ff166003811115610e1757610e16611992565b5b14905092915050565b6000600160008473ffffffffffffffffffffffffffffffffffffffff1673ffffffffffffffffffffffffffffffffffffffff168152602001908152602001600020600201600083815260200190815260200160002060009054906101000a900473ffffffffffffffffffffffffffffffffffffffff16905092915050565b81600380811115610eb257610eb1611992565b5b600160008373ffffffffffffffffffffffffffffffffffffffff1673ffffffffffffffffffffffffffffffffffffffff16815260200190815260200160002060030160003373ffffffffffffffffffffffffffffffffffffffff1673ffffffffffffffffffffffffffffffffffffffff16815260200190815260200160002060000160009054906101000a900460ff166003811115610f5457610f53611992565b5b1480610fed575060011515600260008373ffffffffffffffffffffffffffffffffffffffff1673ffffffffffffffffffffffffffffffffffffffff16815260200190815260200160002060003373ffffffffffffffffffffffffffffffffffffffff1673ffffffffffffffffffffffffffffffffffffffff16815260200190815260200160002060009054906101000a900460ff161515145b8061102a5750610ffb610d37565b73ffffffffffffffffffffffffffffffffffffffff163373ffffffffffffffffffffffffffffffffffffffff16145b611069576040517f08c379a000000000000000000000000000000000000000000000000000000000815260040161106090611caf565b60405180910390fd5b6003600160008573ffffffffffffffffffffffffffffffffffffffff1673ffffffffffffffffffffffffffffffffffffffff16815260200190815260200160002060030160008473ffffffffffffffffffffffffffffffffffffffff1673ffffffffffffffffffffffffffffffffffffffff16815260200190815260200160002060000160006101000a81548160ff0219169083600381111561110f5761110e611992565b5b021790555081600160008573ffffffffffffffffffffffffffffffffffffffff1673ffffffffffffffffffffffffffffffffffffffff1681526020019081526020016000206002016000600160008773ffffffffffffffffffffffffffffffffffffffff1673ffffffffffffffffffffffffffffffffffffffff16815260200190815260200160002060010154815260200190815260200160002060006101000a81548173ffffffffffffffffffffffffffffffffffffffff021916908373ffffffffffffffffffffffffffffffffffffffff16021790555042600160008573ffffffffffffffffffffffffffffffffffffffff1673ffffffffffffffffffffffffffffffffffffffff16815260200190815260200160002060030160008473ffffffffffffffffffffffffffffffffffffffff1673ffffffffffffffffffffffffffffffffffffffff16815260200190815260200160002060010181905550600160008473ffffffffffffffffffffffffffffffffffffffff1673ffffffffffffffffffffffffffffffffffffffff168152602001908152602001600020600101600081546112be90611dd6565b919050819055507f6a2af11b2d73f347f9d5840aea46899e17609730b5cd91bd9c312098038acba682336040516112f6929190611ef7565b60405180910390a1505050565b60016020528060005260406000206000915090508060000160009054906101000a900473ffffffffffffffffffffffffffffffffffffffff16908060010154908060040160009054906101000a900460ff16905083565b8160011515600260008373ffffffffffffffffffffffffffffffffffffffff1673ffffffffffffffffffffffffffffffffffffffff16815260200190815260200160002060003373ffffffffffffffffffffffffffffffffffffffff1673ffffffffffffffffffffffffffffffffffffffff16815260200190815260200160002060009054906101000a900460ff161515148061142957506113fa610d37565b73ffffffffffffffffffffffffffffffffffffffff163373ffffffffffffffffffffffffffffffffffffffff16145b611468576040517f08c379a000000000000000000000000000000000000000000000000000000000815260040161145f90611caf565b60405180910390fd5b6001600260008573ffffffffffffffffffffffffffffffffffffffff1673ffffffffffffffffffffffffffffffffffffffff16815260200190815260200160002060008473ffffffffffffffffffffffffffffffffffffffff1673ffffffffffffffffffffffffffffffffffffffff16815260200190815260200160002060006101000a81548160ff021916908315150217905550505050565b8160011515600260008373ffffffffffffffffffffffffffffffffffffffff1673ffffffffffffffffffffffffffffffffffffffff16815260200190815260200160002060003373ffffffffffffffffffffffffffffffffffffffff1673ffffffffffffffffffffffffffffffffffffffff16815260200190815260200160002060009054906101000a900460ff16151514806115d157506115a2610d37565b73ffffffffffffffffffffffffffffffffffffffff163373ffffffffffffffffffffffffffffffffffffffff16145b611610576040517f08c379a000000000000000000000000000000000000000000000000000000000815260040161160790611caf565b60405180910390fd5b6000600260008573ffffffffffffffffffffffffffffffffffffffff1673ffffffffffffffffffffffffffffffffffffffff16815260200190815260200160002060008473ffffffffffffffffffffffffffffffffffffffff1673ffffffffffffffffffffffffffffffffffffffff16815260200190815260200160002060006101000a81548160ff021916908315150217905550505050565b6040516020016116b990611f6c565b6040516020818303038152906040528051906020012081565b6116da6117ca565b73ffffffffffffffffffffffffffffffffffffffff166116f8610d37565b73ffffffffffffffffffffffffffffffffffffffff161461174e576040517f08c379a000000000000000000000000000000000000000000000000000000000815260040161174590611ed7565b60405180910390fd5b600073ffffffffffffffffffffffffffffffffffffffff168173ffffffffffffffffffffffffffffffffffffffff1614156117be576040517f08c379a00000000000000000000000000000000000000000000000000000000081526004016117b590611ffe565b60405180910390fd5b6117c7816117d2565b50565b600033905090565b60008060009054906101000a900473ffffffffffffffffffffffffffffffffffffffff169050816000806101000a81548173ffffffffffffffffffffffffffffffffffffffff021916908373ffffffffffffffffffffffffffffffffffffffff1602179055508173ffffffffffffffffffffffffffffffffffffffff168173ffffffffffffffffffffffffffffffffffffffff167f8be0079c531659141344cd1fd0a4f28419497f9722a3daafe3b4186f6b6457e060405160405180910390a35050565b6040518060400160405280600060038111156118b5576118b4611992565b5b8152602001600081525090565b600080fd5b600073ffffffffffffffffffffffffffffffffffffffff82169050919050565b60006118f2826118c7565b9050919050565b611902816118e7565b811461190d57600080fd5b50565b60008135905061191f816118f9565b92915050565b6000806040838503121561193c5761193b6118c2565b5b600061194a85828601611910565b925050602061195b85828601611910565b9150509250929050565b60006020828403121561197b5761197a6118c2565b5b600061198984828501611910565b91505092915050565b7f4e487b7100000000000000000000000000000000000000000000000000000000600052602160045260246000fd5b600281106119d2576119d1611992565b5b50565b60008190506119e3826119c1565b919050565b60006119f3826119d5565b9050919050565b611a03816119e8565b82525050565b6000602082019050611a1e60008301846119fa565b92915050565b60048110611a3557611a34611992565b5b50565b6000819050611a4682611a24565b919050565b6000611a5682611a38565b9050919050565b611a6681611a4b565b82525050565b6000819050919050565b611a7f81611a6c565b82525050565b604082016000820151611a9b6000850182611a5d565b506020820151611aae6020850182611a76565b50505050565b6000604082019050611ac96000830184611a85565b92915050565b60007fffffffffffffffff00000000000000000000000000000000000000000000000082169050919050565b611b0481611acf565b82525050565b6000602082019050611b1f6000830184611afb565b92915050565b611b2e81611a6c565b82525050565b6000602082019050611b496000830184611b25565b92915050565b60008115159050919050565b611b6481611b4f565b82525050565b6000602082019050611b7f6000830184611b5b565b92915050565b611b8e816118e7565b82525050565b6000602082019050611ba96000830184611b85565b92915050565b611bb881611a6c565b8114611bc357600080fd5b50565b600081359050611bd581611baf565b92915050565b60008060408385031215611bf257611bf16118c2565b5b6000611c0085828601611910565b9250506020611c1185828601611bc6565b9150509250929050565b6000606082019050611c306000830186611b85565b611c3d6020830185611b25565b611c4a6040830184611b5b565b949350505050565b600082825260208201905092915050565b7f4e6f7420617574686f72697a6564000000000000000000000000000000000000600082015250565b6000611c99600e83611c52565b9150611ca482611c63565b602082019050919050565b60006020820190508181036000830152611cc881611c8c565b9050919050565b7f44616f20616c7265616479206164646564000000000000000000000000000000600082015250565b6000611d05601183611c52565b9150611d1082611ccf565b602082019050919050565b60006020820190508181036000830152611d3481611cf8565b9050919050565b7f496d706f737369626c6520746f206a6f696e0000000000000000000000000000600082015250565b6000611d71601283611c52565b9150611d7c82611d3b565b602082019050919050565b60006020820190508181036000830152611da081611d64565b9050919050565b7f4e487b7100000000000000000000000000000000000000000000000000000000600052601160045260246000fd5b6000611de182611a6c565b91507fffffffffffffffffffffffffffffffffffffffffffffffffffffffffffffffff821415611e1457611e13611da7565b5b600182019050919050565b7f4d656d6265724d6f64756c650000000000000000000000000000000000000000600082015250565b6000611e55600c83611c52565b9150611e6082611e1f565b602082019050919050565b60006020820190508181036000830152611e8481611e48565b9050919050565b7f4f776e61626c653a2063616c6c6572206973206e6f7420746865206f776e6572600082015250565b6000611ec1602083611c52565b9150611ecc82611e8b565b602082019050919050565b60006020820190508181036000830152611ef081611eb4565b9050919050565b6000604082019050611f0c6000830185611b85565b611f196020830184611b85565b9392505050565b7f4f70656e4d656d626572736869704d6f64756c65000000000000000000000000600082015250565b6000611f56601483611c52565b9150611f6182611f20565b602082019050919050565b60006020820190508181036000830152611f8581611f49565b9050919050565b7f4f776e61626c653a206e6577206f776e657220697320746865207a65726f206160008201527f6464726573730000000000000000000000000000000000000000000000000000602082015250565b6000611fe8602683611c52565b9150611ff382611f8c565b604082019050919050565b6000602082019050818103600083015261201781611fdb565b905091905056fea2646970667358221220dbfd7e812b34693c3b4be6ba464f6298e5f0e1c70e17826578310cc48f7e604564736f6c63430008090033",
  "immutableReferences": {},
  "source": "// SPDX-License-Identifier: MIT\npragma solidity ^0.8.9;\n\nimport \"@openzeppelin/contracts/utils/math/SafeMath.sol\";\nimport \"@openzeppelin/contracts/access/Ownable.sol\";\nimport \"../../Data.sol\";\nimport \"../../DaoBase.sol\";\n\n//is DaosFactory\ncontract OpenMembershipModule is Ownable {\n    using SafeMath for uint256;\n\n    /// @notice store the module code hash\n    bytes8 public constant moduleCode = bytes8(keccak256(abi.encode(\"OpenMembershipModule\")));\n\n    /// @notice store the module type hash\n    bytes8 public constant moduleType = bytes8(keccak256(abi.encode(\"MemberModule\")));\n\n    /// @notice visibility of the members in MY-DAO\n    Data.visibilityEnum public visibility;\n\n    /**\n    * @notice store daos info\n    * @dev param address is address of the daoBase. return daoMember struct\n    */\n    mapping(address => Data.DaoMember) public daos;\n\n    /**\n    * @notice store daos info\n    * @dev param address is address of the daoBase. return daoMember struct\n    */\n    mapping(address => mapping(address => bool)) public authorizedAddress;\n\n    event MemberAdded(address newMember, address adderAddress);\n    event MemberAccepted(address newMember, address acceptorAddress);\n    event MemberInvited(address memberInvited, address memberInvitor);\n    event MemberJoined(address memberJoined);\n    event MemberAskedJoin(address memberRequestor);\n\n    /**\n    * @notice constructor change the owner to be the DaosFactory\n    * @dev param 0 address of the DaosFactory\n    */\n    constructor(address _contractFactory) {\n        _transferOwnership(_contractFactory);\n    }\n\n    /**\n    * @notice check msg.sender is member or authorized\n    * @dev param 0 address of the DaosFactory\n    */\n    modifier onlyActiveMembersOrAuthorizeAddress(address _contractDao) {\n        require(daos[_contractDao].members[msg.sender].status == Data.memberStatus.active \n        || authorizedAddress[_contractDao][msg.sender] == true\n        || msg.sender == owner(), \"Not authorized\");\n        _;\n    }\n\n    /**\n    * @notice check msg.sender is not a member\n    * @dev param 0 address of the DaosFactory\n    */\n    modifier onlyNotActiveMembers(address _contractDao) {\n        require(daos[_contractDao].members[msg.sender].status != Data.memberStatus.active, \"Not authorized\");\n        _;\n    }\n\n    /**\n    * @notice check msg.sender is authorized\n    * @dev param 0 address of the DaosFactory\n    */\n    modifier onlyAuthorizeAddress(address _contractDao) {\n        require(authorizedAddress[_contractDao][msg.sender] == true, \"Not authorized\");\n        _;\n    }\n\n    /**\n    * @notice check msg.sender is authorized or the owner\n    * @dev param 0 address of the DaosFactory\n    */\n    modifier onlyAuthorizeAddressOrOwner(address _contractDao) {\n        require(authorizedAddress[_contractDao][msg.sender] == true || msg.sender == owner(), \"Not authorized\");\n        _;\n    }\n\n    /**\n    * @notice get info of a member in a dao\n    * @param _contractDao address of the dao\n    * @param _member address of the member\n    * @return member struct taht store info of the member see ../../Data.sol\n    */\n    function getMemberInfo(address _contractDao, address _member) external view returns(Data.member memory) {\n        return(daos[_contractDao].members[_member]);\n    }\n\n    /**\n    * @notice get address of a member in a dao by his id\n    * @param _contractDao address of the dao\n    * @param _id id of the member\n    * @return member address of the member\n    */\n    function getAddrById(address _contractDao, uint256 _id) external view returns(address) {\n        return daos[_contractDao].memberAddresses[_id];\n    }\n\n    /**\n    * @notice get the total member of the dao\n    * @param _contractDao address of the dao\n    * @return count uint256 of the total member in the dao\n    */\n    function getMembersCount(address _contractDao) external view returns(uint256) {\n        return daos[_contractDao].membersCount;\n    }\n\n    /**\n    * @notice add member to the dao\n    * @dev only active member or authorized address can execute this function\n    * @param _contractDao address of the dao\n    * @param _addressMember address of the user that will be added\n    */\n    function addMember(address _contractDao, address _addressMember) public onlyActiveMembersOrAuthorizeAddress(_contractDao) {\n        daos[_contractDao].members[_addressMember].status = Data.memberStatus.active;\n        daos[_contractDao].memberAddresses[daos[_contractDao].membersCount] = _addressMember;\n        daos[_contractDao].members[_addressMember].joinTime = block.timestamp;\n        ++daos[_contractDao].membersCount;\n        emit MemberAdded(_addressMember, msg.sender);\n    }\n\n    /**\n    * @notice return if a address is member of a dao\n    * @param _contractDao address of the dao\n    * @param _addressMember address of the user to check\n    * @return bool true or false if is active\n    */\n    function isActiveMember(address _contractDao, address _addressMember) public view returns (bool){\n        return daos[_contractDao].members[_addressMember].status == Data.memberStatus.active;\n    }\n\n    /**\n    * @notice join a dao\n    * @dev only not active member can execute this function\n    * @param _contractDao address of the dao\n    */\n    function join(address _contractDao) public onlyNotActiveMembers(_contractDao) {\n        require(daos[_contractDao].members[msg.sender].status == Data.memberStatus.notMember\n            , \"Impossible to join\");\n        daos[_contractDao].members[msg.sender].status = Data.memberStatus.active;\n        daos[_contractDao].memberAddresses[daos[_contractDao].membersCount] = msg.sender;\n        daos[_contractDao].members[msg.sender].joinTime = block.timestamp;\n        ++daos[_contractDao].membersCount;\n        emit MemberJoined(msg.sender);\n    }\n\n    /**\n    * @notice link a dao to SimpleDonationsModule\n    * @param _contractDao address of the dao\n    * @param _memberDao address of the user of the dao in this case the owner of the dao\n    */\n    function addDao(address _contractDao, address _memberDao) external onlyAuthorizeAddressOrOwner(_contractDao) {\n        require(!daos[_contractDao].isActive, \"Dao already added\");\n        daos[_contractDao].isActive = true;\n        daos[_contractDao].addressDao = _contractDao;\n        addMember(_contractDao, _memberDao);\n        authorizedAddress[_contractDao][_memberDao] = true;\n    }\n\n    /**\n    * @notice authorize a new address\n    * @param _contractDao address of the dao\n    * @param _contractAddress address that will be authorized\n    */\n    function authorizeAddress(address _contractDao, address _contractAddress) external onlyAuthorizeAddressOrOwner(_contractDao) {\n        authorizedAddress[_contractDao][_contractAddress] = true;\n    }\n\n    /**\n    * @notice deny a authorized address\n    * @param _contractDao address of the dao\n    * @param _contractAddress address that will be deny\n    */\n    function denyAddress(address _contractDao, address _contractAddress) external onlyAuthorizeAddressOrOwner(_contractDao) {\n        authorizedAddress[_contractDao][_contractAddress] = false;\n    }\n}",
  "sourcePath": "/Users/wasim/Documents/GitHub/VotingDAO/DAOFactory/DAOFactory/contracts/Modules/Implementations/OpenMembershipModule.sol",
  "compiler": {
    "name": "solc",
    "version": "0.8.9+commit.e5eed63a.Emscripten.clang"
  },
  "schemaVersion": "3.4.15",
  "updatedAt": "2023-08-31T18:03:06.047Z",
  "devdoc": {
    "kind": "dev",
    "methods": {
      "addDao(address,address)": {
        "params": {
          "_contractDao": "address of the dao",
          "_memberDao": "address of the user of the dao in this case the owner of the dao"
        }
      },
      "addMember(address,address)": {
        "details": "only active member or authorized address can execute this function",
        "params": {
          "_addressMember": "address of the user that will be added",
          "_contractDao": "address of the dao"
        }
      },
      "authorizeAddress(address,address)": {
        "params": {
          "_contractAddress": "address that will be authorized",
          "_contractDao": "address of the dao"
        }
      },
      "constructor": {
        "details": "param 0 address of the DaosFactory"
      },
      "denyAddress(address,address)": {
        "params": {
          "_contractAddress": "address that will be deny",
          "_contractDao": "address of the dao"
        }
      },
      "getAddrById(address,uint256)": {
        "params": {
          "_contractDao": "address of the dao",
          "_id": "id of the member"
        },
        "returns": {
          "_0": "member address of the member"
        }
      },
      "getMemberInfo(address,address)": {
        "params": {
          "_contractDao": "address of the dao",
          "_member": "address of the member"
        },
        "returns": {
          "_0": "member struct taht store info of the member see ../../Data.sol"
        }
      },
      "getMembersCount(address)": {
        "params": {
          "_contractDao": "address of the dao"
        },
        "returns": {
          "_0": "count uint256 of the total member in the dao"
        }
      },
      "isActiveMember(address,address)": {
        "params": {
          "_addressMember": "address of the user to check",
          "_contractDao": "address of the dao"
        },
        "returns": {
          "_0": "bool true or false if is active"
        }
      },
      "join(address)": {
        "details": "only not active member can execute this function",
        "params": {
          "_contractDao": "address of the dao"
        }
      },
      "owner()": {
        "details": "Returns the address of the current owner."
      },
      "renounceOwnership()": {
        "details": "Leaves the contract without owner. It will not be possible to call `onlyOwner` functions anymore. Can only be called by the current owner. NOTE: Renouncing ownership will leave the contract without an owner, thereby removing any functionality that is only available to the owner."
      },
      "transferOwnership(address)": {
        "details": "Transfers ownership of the contract to a new account (`newOwner`). Can only be called by the current owner."
      }
    },
    "stateVariables": {
      "authorizedAddress": {
        "details": "param address is address of the daoBase. return daoMember struct"
      },
      "daos": {
        "details": "param address is address of the daoBase. return daoMember struct"
      }
    },
    "version": 1
  },
  "userdoc": {
    "kind": "user",
    "methods": {
      "addDao(address,address)": {
        "notice": "link a dao to SimpleDonationsModule"
      },
      "addMember(address,address)": {
        "notice": "add member to the dao"
      },
      "authorizeAddress(address,address)": {
        "notice": "authorize a new address"
      },
      "authorizedAddress(address,address)": {
        "notice": "store daos info"
      },
      "constructor": {
        "notice": "constructor change the owner to be the DaosFactory"
      },
      "daos(address)": {
        "notice": "store daos info"
      },
      "denyAddress(address,address)": {
        "notice": "deny a authorized address"
      },
      "getAddrById(address,uint256)": {
        "notice": "get address of a member in a dao by his id"
      },
      "getMemberInfo(address,address)": {
        "notice": "get info of a member in a dao"
      },
      "getMembersCount(address)": {
        "notice": "get the total member of the dao"
      },
      "isActiveMember(address,address)": {
        "notice": "return if a address is member of a dao"
      },
      "join(address)": {
        "notice": "join a dao"
      },
      "moduleCode()": {
        "notice": "store the module code hash"
      },
      "moduleType()": {
        "notice": "store the module type hash"
      },
      "visibility()": {
        "notice": "visibility of the members in MY-DAO"
      }
    },
    "version": 1
  }
}