{
  "_format": "hh-sol-artifact-1",
  "contractName": "Ballot",
  "sourceName": "contracts/Ballot.sol",
  "abi": [
    {
      "inputs": [],
      "stateMutability": "nonpayable",
      "type": "constructor"
    },
    {
      "inputs": [
        {
          "internalType": "bytes32",
          "name": "_proposal",
          "type": "bytes32"
        }
      ],
      "name": "addProposal",
      "outputs": [],
      "stateMutability": "nonpayable",
      "type": "function"
    },
    {
      "inputs": [],
      "name": "chairperson",
      "outputs": [
        {
          "internalType": "address",
          "name": "",
          "type": "address"
        }
      ],
      "stateMutability": "view",
      "type": "function"
    },
    {
      "inputs": [
        {
          "internalType": "address",
          "name": "to",
          "type": "address"
        }
      ],
      "name": "delegate",
      "outputs": [],
      "stateMutability": "nonpayable",
      "type": "function"
    },
    {
      "inputs": [],
      "name": "getAllProposals",
      "outputs": [
        {
          "components": [
            {
              "internalType": "bytes32",
              "name": "name",
              "type": "bytes32"
            },
            {
              "internalType": "uint256",
              "name": "voteCount",
              "type": "uint256"
            }
          ],
          "internalType": "struct Ballot.Proposal[]",
          "name": "",
          "type": "tuple[]"
        }
      ],
      "stateMutability": "view",
      "type": "function"
    },
    {
      "inputs": [
        {
          "internalType": "address",
          "name": "voterAddr",
          "type": "address"
        }
      ],
      "name": "getVoterStats",
      "outputs": [
        {
          "components": [
            {
              "internalType": "uint256",
              "name": "weight",
              "type": "uint256"
            },
            {
              "internalType": "bool",
              "name": "voted",
              "type": "bool"
            },
            {
              "internalType": "address",
              "name": "delegate",
              "type": "address"
            },
            {
              "internalType": "uint256",
              "name": "vote",
              "type": "uint256"
            }
          ],
          "internalType": "struct Ballot.Voter",
          "name": "",
          "type": "tuple"
        }
      ],
      "stateMutability": "view",
      "type": "function"
    },
    {
      "inputs": [
        {
          "internalType": "address",
          "name": "voter",
          "type": "address"
        }
      ],
      "name": "giveRightToVote",
      "outputs": [],
      "stateMutability": "nonpayable",
      "type": "function"
    },
    {
      "inputs": [
        {
          "internalType": "uint256",
          "name": "",
          "type": "uint256"
        }
      ],
      "name": "proposals",
      "outputs": [
        {
          "internalType": "bytes32",
          "name": "name",
          "type": "bytes32"
        },
        {
          "internalType": "uint256",
          "name": "voteCount",
          "type": "uint256"
        }
      ],
      "stateMutability": "view",
      "type": "function"
    },
    {
      "inputs": [
        {
          "internalType": "uint256",
          "name": "proposal",
          "type": "uint256"
        }
      ],
      "name": "vote",
      "outputs": [],
      "stateMutability": "nonpayable",
      "type": "function"
    },
    {
      "inputs": [
        {
          "internalType": "address",
          "name": "",
          "type": "address"
        }
      ],
      "name": "voters",
      "outputs": [
        {
          "internalType": "uint256",
          "name": "weight",
          "type": "uint256"
        },
        {
          "internalType": "bool",
          "name": "voted",
          "type": "bool"
        },
        {
          "internalType": "address",
          "name": "delegate",
          "type": "address"
        },
        {
          "internalType": "uint256",
          "name": "vote",
          "type": "uint256"
        }
      ],
      "stateMutability": "view",
      "type": "function"
    },
    {
      "inputs": [],
      "name": "winnerName",
      "outputs": [
        {
          "internalType": "bytes32",
          "name": "winnerName_",
          "type": "bytes32"
        }
      ],
      "stateMutability": "view",
      "type": "function"
    },
    {
      "inputs": [],
      "name": "winningProposal",
      "outputs": [
        {
          "internalType": "uint256",
          "name": "winningProposal_",
          "type": "uint256"
        }
      ],
      "stateMutability": "view",
      "type": "function"
    }
  ],
  "bytecode": "0x608060405234801561001057600080fd5b50336000806101000a81548173ffffffffffffffffffffffffffffffffffffffff021916908373ffffffffffffffffffffffffffffffffffffffff16021790555060018060008060009054906101000a900473ffffffffffffffffffffffffffffffffffffffff1673ffffffffffffffffffffffffffffffffffffffff1673ffffffffffffffffffffffffffffffffffffffff1681526020019081526020016000206000018190555061160a806100c86000396000f3fe608060405234801561001057600080fd5b50600436106100a95760003560e01c80635c19a95c116100715780635c19a95c14610165578063609ff1bd146101815780639e7b8d611461019f578063a3ec138d146101bb578063cceb68f5146101ee578063e2ba53f01461020c576100a9565b80630121b93f146100ae578063013cf08b146100ca57806306efe3b0146100fb5780632e4176cf146101175780635bff3c2314610135575b600080fd5b6100c860048036038101906100c39190610e74565b61022a565b005b6100e460048036038101906100df9190610e74565b610397565b6040516100f292919061115c565b60405180910390f35b61011560048036038101906101109190610e4b565b6103cb565b005b61011f610425565b60405161012c9190611104565b60405180910390f35b61014f600480360381019061014a9190610e22565b610449565b60405161015c9190611265565b60405180910390f35b61017f600480360381019061017a9190610e22565b610527565b005b6101896108e9565b6040516101969190611280565b60405180910390f35b6101b960048036038101906101b49190610e22565b6109bd565b005b6101d560048036038101906101d09190610e22565b610b74565b6040516101e5949392919061129b565b60405180910390f35b6101f6610bd1565b604051610203919061111f565b60405180910390f35b610214610d2c565b6040516102219190611141565b60405180910390f35b6000600160003373ffffffffffffffffffffffffffffffffffffffff1673ffffffffffffffffffffffffffffffffffffffff16815260200190815260200160002090506000816000015414156102b5576040517f08c379a00000000000000000000000000000000000000000000000000000000081526004016102ac90611185565b60405180910390fd5b8060010160009054906101000a900460ff1615610307576040517f08c379a00000000000000000000000000000000000000000000000000000000081526004016102fe906111a5565b60405180910390fd5b60018160010160006101000a81548160ff02191690831515021790555081816002018190555080600001546002838154811061036c577f4e487b7100000000000000000000000000000000000000000000000000000000600052603260045260246000fd5b9060005260206000209060020201600101600082825461038c919061132a565b925050819055505050565b600281815481106103a757600080fd5b90600052602060002090600202016000915090508060000154908060010154905082565b60026040518060400160405280838152602001600081525090806001815401808255809150506001900390600052602060002090600202016000909190919091506000820151816000015560208201518160010155505050565b60008054906101000a900473ffffffffffffffffffffffffffffffffffffffff1681565b610451610d86565b600160008373ffffffffffffffffffffffffffffffffffffffff1673ffffffffffffffffffffffffffffffffffffffff168152602001908152602001600020604051806080016040529081600082015481526020016001820160009054906101000a900460ff161515151581526020016001820160019054906101000a900473ffffffffffffffffffffffffffffffffffffffff1673ffffffffffffffffffffffffffffffffffffffff1673ffffffffffffffffffffffffffffffffffffffff1681526020016002820154815250509050919050565b6000600160003373ffffffffffffffffffffffffffffffffffffffff1673ffffffffffffffffffffffffffffffffffffffff16815260200190815260200160002090508060010160009054906101000a900460ff16156105bc576040517f08c379a00000000000000000000000000000000000000000000000000000000081526004016105b3906111c5565b60405180910390fd5b3373ffffffffffffffffffffffffffffffffffffffff168273ffffffffffffffffffffffffffffffffffffffff16141561062b576040517f08c379a000000000000000000000000000000000000000000000000000000000815260040161062290611245565b60405180910390fd5b5b600073ffffffffffffffffffffffffffffffffffffffff16600160008473ffffffffffffffffffffffffffffffffffffffff1673ffffffffffffffffffffffffffffffffffffffff16815260200190815260200160002060010160019054906101000a900473ffffffffffffffffffffffffffffffffffffffff1673ffffffffffffffffffffffffffffffffffffffff161461079b57600160008373ffffffffffffffffffffffffffffffffffffffff1673ffffffffffffffffffffffffffffffffffffffff16815260200190815260200160002060010160019054906101000a900473ffffffffffffffffffffffffffffffffffffffff1691503373ffffffffffffffffffffffffffffffffffffffff168273ffffffffffffffffffffffffffffffffffffffff161415610796576040517f08c379a000000000000000000000000000000000000000000000000000000000815260040161078d90611205565b60405180910390fd5b61062c565b60018160010160006101000a81548160ff021916908315150217905550818160010160016101000a81548173ffffffffffffffffffffffffffffffffffffffff021916908373ffffffffffffffffffffffffffffffffffffffff1602179055506000600160008473ffffffffffffffffffffffffffffffffffffffff1673ffffffffffffffffffffffffffffffffffffffff16815260200190815260200160002090508060010160009054906101000a900460ff16156108c45781600001546002826002015481548110610898577f4e487b7100000000000000000000000000000000000000000000000000000000600052603260045260246000fd5b906000526020600020906002020160010160008282546108b8919061132a565b925050819055506108e4565b81600001548160000160008282546108dc919061132a565b925050819055505b505050565b6000806000905060005b6002805490508110156109b857816002828154811061093b577f4e487b7100000000000000000000000000000000000000000000000000000000600052603260045260246000fd5b90600052602060002090600202016001015411156109a5576002818154811061098d577f4e487b7100000000000000000000000000000000000000000000000000000000600052603260045260246000fd5b90600052602060002090600202016001015491508092505b80806109b0906113d2565b9150506108f3565b505090565b60008054906101000a900473ffffffffffffffffffffffffffffffffffffffff1673ffffffffffffffffffffffffffffffffffffffff163373ffffffffffffffffffffffffffffffffffffffff1614610a4b576040517f08c379a0000000000000000000000000000000000000000000000000000000008152600401610a42906111e5565b60405180910390fd5b600160008273ffffffffffffffffffffffffffffffffffffffff1673ffffffffffffffffffffffffffffffffffffffff16815260200190815260200160002060010160009054906101000a900460ff1615610adb576040517f08c379a0000000000000000000000000000000000000000000000000000000008152600401610ad290611225565b60405180910390fd5b6000600160008373ffffffffffffffffffffffffffffffffffffffff1673ffffffffffffffffffffffffffffffffffffffff1681526020019081526020016000206000015414610b2a57600080fd5b60018060008373ffffffffffffffffffffffffffffffffffffffff1673ffffffffffffffffffffffffffffffffffffffff1681526020019081526020016000206000018190555050565b60016020528060005260406000206000915090508060000154908060010160009054906101000a900460ff16908060010160019054906101000a900473ffffffffffffffffffffffffffffffffffffffff16908060020154905084565b6060600060028054905067ffffffffffffffff811115610c1a577f4e487b7100000000000000000000000000000000000000000000000000000000600052604160045260246000fd5b604051908082528060200260200182016040528015610c5357816020015b610c40610dc6565b815260200190600190039081610c385790505b50905060005b600280549050811015610d245760028181548110610ca0577f4e487b7100000000000000000000000000000000000000000000000000000000600052603260045260246000fd5b906000526020600020906002020160405180604001604052908160008201548152602001600182015481525050828281518110610d06577f4e487b7100000000000000000000000000000000000000000000000000000000600052603260045260246000fd5b60200260200101819052508080610d1c906113d2565b915050610c59565b508091505090565b60006002610d386108e9565b81548110610d6f577f4e487b7100000000000000000000000000000000000000000000000000000000600052603260045260246000fd5b906000526020600020906002020160000154905090565b604051806080016040528060008152602001600015158152602001600073ffffffffffffffffffffffffffffffffffffffff168152602001600081525090565b604051806040016040528060008019168152602001600081525090565b600081359050610df28161158f565b92915050565b600081359050610e07816115a6565b92915050565b600081359050610e1c816115bd565b92915050565b600060208284031215610e3457600080fd5b6000610e4284828501610de3565b91505092915050565b600060208284031215610e5d57600080fd5b6000610e6b84828501610df8565b91505092915050565b600060208284031215610e8657600080fd5b6000610e9484828501610e0d565b91505092915050565b6000610ea98383611062565b60408301905092915050565b610ebe81611380565b82525050565b610ecd81611380565b82525050565b6000610ede826112f0565b610ee88185611308565b9350610ef3836112e0565b8060005b83811015610f24578151610f0b8882610e9d565b9750610f16836112fb565b925050600181019050610ef7565b5085935050505092915050565b610f3a81611392565b82525050565b610f4981611392565b82525050565b610f588161139e565b82525050565b610f678161139e565b82525050565b6000610f7a601483611319565b9150610f858261144a565b602082019050919050565b6000610f9d600e83611319565b9150610fa882611473565b602082019050919050565b6000610fc0601283611319565b9150610fcb8261149c565b602082019050919050565b6000610fe3602883611319565b9150610fee826114c5565b604082019050919050565b6000611006601983611319565b915061101182611514565b602082019050919050565b6000611029601883611319565b91506110348261153d565b602082019050919050565b600061104c601e83611319565b915061105782611566565b602082019050919050565b6040820160008201516110786000850182610f4f565b50602082015161108b60208501826110e6565b50505050565b6080820160008201516110a760008501826110e6565b5060208201516110ba6020850182610f31565b5060408201516110cd6040850182610eb5565b5060608201516110e060608501826110e6565b50505050565b6110ef816113c8565b82525050565b6110fe816113c8565b82525050565b60006020820190506111196000830184610ec4565b92915050565b600060208201905081810360008301526111398184610ed3565b905092915050565b60006020820190506111566000830184610f5e565b92915050565b60006040820190506111716000830185610f5e565b61117e60208301846110f5565b9392505050565b6000602082019050818103600083015261119e81610f6d565b9050919050565b600060208201905081810360008301526111be81610f90565b9050919050565b600060208201905081810360008301526111de81610fb3565b9050919050565b600060208201905081810360008301526111fe81610fd6565b9050919050565b6000602082019050818103600083015261121e81610ff9565b9050919050565b6000602082019050818103600083015261123e8161101c565b9050919050565b6000602082019050818103600083015261125e8161103f565b9050919050565b600060808201905061127a6000830184611091565b92915050565b600060208201905061129560008301846110f5565b92915050565b60006080820190506112b060008301876110f5565b6112bd6020830186610f40565b6112ca6040830185610ec4565b6112d760608301846110f5565b95945050505050565b6000819050602082019050919050565b600081519050919050565b6000602082019050919050565b600082825260208201905092915050565b600082825260208201905092915050565b6000611335826113c8565b9150611340836113c8565b9250827fffffffffffffffffffffffffffffffffffffffffffffffffffffffffffffffff038211156113755761137461141b565b5b828201905092915050565b600061138b826113a8565b9050919050565b60008115159050919050565b6000819050919050565b600073ffffffffffffffffffffffffffffffffffffffff82169050919050565b6000819050919050565b60006113dd826113c8565b91507fffffffffffffffffffffffffffffffffffffffffffffffffffffffffffffffff8214156114105761140f61141b565b5b600182019050919050565b7f4e487b7100000000000000000000000000000000000000000000000000000000600052601160045260246000fd5b7f486173206e6f20726967687420746f20766f7465000000000000000000000000600082015250565b7f416c726561647920766f7465642e000000000000000000000000000000000000600082015250565b7f596f7520616c726561647920766f7465642e0000000000000000000000000000600082015250565b7f4f6e6c79206368616972706572736f6e2063616e20676976652072696768742060008201527f746f20766f74652e000000000000000000000000000000000000000000000000602082015250565b7f466f756e64206c6f6f7020696e2064656c65676174696f6e2e00000000000000600082015250565b7f54686520766f74657220616c726561647920766f7465642e0000000000000000600082015250565b7f53656c662d64656c65676174696f6e20697320646973616c6c6f7765642e0000600082015250565b61159881611380565b81146115a357600080fd5b50565b6115af8161139e565b81146115ba57600080fd5b50565b6115c6816113c8565b81146115d157600080fd5b5056fea2646970667358221220d2469c5f09c740c54c3cb1ae927573afcd57f524ee2bacf8129478f2a37d600564736f6c63430008040033",
  "linkReferences": {},
  "deployedLinkReferences": {}
}